:020000040800F2
:10000000C82E0020210400082D0200082F0200083D
:1000100033020008370200083B020008000000001D
:100020000000000000000000000000003F02000887
:100030004102000800000000430200081F9C000865
:100040003B0400083B0400083B0400083B04000894
:100050003B0400083B0400083B0400083B04000884
:100060003B0400083B0400083B0400083B04000874
:100070003B0400083B0400083B0400083B04000864
:100080003B0400083B0400083B0400083B04000854
:100090003B0400083B0400083B0400083B04000844
:1000A0003B0400083B0400083B0400083B04000834
:1000B0003B0400083B0400083B0400083B04000824
:1000C0003B0400083B0400083B0400083B04000814
:1000D0003B0400083B0400083B0400083B04000804
:1000E0003B0400083B0400083B0400083B040008F4
:1000F0003B0400083B0400083B0400083B040008E4
:100100003B0400083B0400083B0400083B040008D3
:10011000A75600083B0400083B0400083B04000805
:100120003B0400083B0400083B0400083B040008B3
:1001300000F002F800F05AF80AA090E8000C82449F
:100140008344AAF10107DA4501D100F04FF8AFF27C
:10015000090EBAE80F0013F0010F18BFFB1A43F0A5
:1001600001031847D4C50000F4C500000A444FF04D
:10017000000C10F8013B13F0070408BF10F8014B06
:100180001D1108BF10F8015B641E05D010F8016B4B
:10019000641E01F8016BF9D113F0080F1EBF10F8AF
:1001A000014BAD1C0C1B09D16D1E58BF01F801CBD2
:1001B000FAD505E014F8016B01F8016B6D1EF9D555
:1001C0009142D6D37047000000230024002500266A
:1001D000103A28BF78C1FBD8520728BF30C148BFAA
:1001E0000B6070471FB51FBD10B510BD0AF078FA3F
:1001F0001146FFF7F7FF00F009F80AF096FA03B48A
:10020000FFF7F2FF03BC0AF097FA0000012108464D
:1002100001F0E0FA0121044801F0F1F806F056FD82
:1002200001E009F004FCFCE700023000704700BF69
:10023000FEE700BFFEE700BFFEE700BFFEE7704736
:10024000704770471CB50020019000906A48006814
:1002500040F480306849086000BF6748006800F4D7
:10026000003000900198401C0190009818B9019846
:10027000B0F5A06FF1D16048006800F4003010B113
:100280000120009001E0002000900098012840D15A
:100290005A48006840F01000584908600846006855
:1002A00020F0030008600846006840F00200086083
:1002B00051484068504948600846406848600846D0
:1002C000406840F4806048604FF4E0114FF44030E3
:1002D00001F09AF94848006840F08070464908608B
:1002E00000BF4548006800F000700028F9D042487F
:1002F000406820F00300404948600846406840F0EC
:100300000200486000BF3C48406800F00C0008282C
:10031000F9D11CBD10B5FFF795FF10BD10B53648DB
:10032000006840F0010034490860084640683449DC
:1003300008403149486008460068324908402E4963
:1003400008600846006820F480200860084640687D
:1003500020F4FE0048604FF41F008860FFF7DAFFCA
:100360004FF000602849086010BD10B50021002042
:100370000022214B5B6803F00C0121B1042906D057
:10038000082928D107E0214B214C236027E0214B8D
:100390001F4C236023E0184B5B6803F47010164B6E
:1003A0005B6803F48032022303EB904022B91A4BBE
:1003B0004343174C23600DE00F4B5B6803F400339D
:1003C00023B1124B4343124C236003E0114B4343D0
:1003D0000F4C236003E00D4B0D4C236000BF00BFAA
:1003E000054B5B68C3F303130C4CE15C084B1B68C3
:1003F000CB40074C236010BD00100240002002409B
:100400000000FFF8FFFFF6FE08ED00E000127A00A2
:10041000000000200024F40000093D00040000203A
:100420000948804709480047FEE7FEE7FEE7FEE788
:10043000FEE7FEE7FEE7FEE7FEE7FEE704480549C4
:10044000054A064B704700001D03000831010008F3
:10045000C8280020C82E0020C82A0020C82A002052
:1004600031490143314A1160704770B500210023C2
:100470000F22C47804B32D4C246804F4E064C4F55E
:10048000E064210AC1F10403CA40447804FA03F18C
:100490008478144021430901254C0678A15504783D
:1004A00004F01F050124AC4005786D11AD0005F185
:1004B000E025C5F8004109E0047804F01F05012497
:1004C000AC401C4D0678761145F8264070BD1A4A9E
:1004D0000A400243154B1B1F1A60704739B1134A7B
:1004E000121D12680243114B1B1D1A6006E00F4AD1
:1004F000121D126882430D4B1B1D1A6070470428A1
:1005000008D14FF0E021096941F004014FF0E022E9
:10051000116107E04FF0E021096921F004014FF07B
:10052000E0221161704700000000FA050CED00E0C8
:1005300000E400E080E100E080FFFF1F10B504460A
:10054000FA48844208D10121401501F05DF90021EB
:10055000601501F059F917E0F548844208D10121EE
:10056000001501F051F90021201501F04DF90BE0C3
:10057000F048844208D10121C80301F045F9002167
:100580004FF4004001F040F910BD30B502460020A4
:1005900000235068E84C20400D790C6844EA05249B
:1005A000204350609068E54C2040D1E902542C4330
:1005B0004D7944EA450420439060D06A20F47000ED
:1005C0000C7C641EE4B2234340EA0350D06230BD89
:1005D00000210160017141718160C16001210174DC
:1005E000704721B1826842F00102826003E08268B4
:1005F00022F001028260704721B1826842F4807269
:10060000826003E0826822F480728260704710B5D5
:100610000023CBB21AB144681C43446002E0446832
:100620009C43446010BD816841F0080181607047BF
:10063000014600208A6802F008020AB1012000E0A9
:1006400000207047816841F00401816070470146D5
:1006500000208A6802F004020AB1012000E00020B4
:10066000704721B1826842F4A002826003E0826890
:1006700022F4A00282607047014600208A6802F4DA
:1006800080020AB1012000E00020704710B50A4640
:1006900000210023416821F46041531E41EA4331A7
:1006A000416010BD21B1426842F40062426003E043
:1006B000426822F4006242607047F0B504460D467D
:1006C00000200021092D11DDE068A5F10A0606EBE6
:1006D0004607072606FA07F18843A5F10A0606EB46
:1006E000460603FA06F10843E0600CE0206905EBDA
:1006F0004507072606FA07F1884305EB450603FA86
:1007000006F108432061072A0FDA606B561E06EBDC
:1007100086071F2606FA07F18843561E06EB860653
:1007200005FA06F10843606322E00D2A0FDA206B18
:10073000D61F06EB86071F2606FA07F18843D61F49
:1007400006EB860605FA06F10843206310E0E06A2E
:10075000A2F10D0606EB86071F2606FA07F188436D
:10076000A2F10D0606EB860605FA06F10843E062E3
:10077000F0BD21B1826842F48012826003E0826899
:1007800022F48012826070470146C86C80B27047C4
:1007900066484C300068704721B1426842F480627C
:1007A000426003E0426822F480624260704721B1F7
:1007B000426842F48052426003E0426822F4805270
:1007C000426070470A460021816821F4E0411143EC
:1007D0008160704721B1826842F40042826003E088
:1007E000826822F400428260704721B1826842F43C
:1007F0000212826003E0826822F402128260704773
:10080000014600208A6802F400120AB1012000E0CB
:1008100000207047F0B5044615460020002200264F
:10082000092911DDE068A1F10A0707EB470C07274A
:1008300007FA0CF29043A1F10A0707EB470703FA06
:1008400007F21043E0600CE0206901EB410C072740
:1008500007FA0CF2904301EB410703FA07F2104349
:100860002061A06BC0F30156EF1C06F1010CA7EB51
:100870000C0707EB870C1F2707FA0CF29043EF1CBD
:1008800006F1010CA7EB0C0707EB870701FA07F24B
:100890001043A063F0BD10B50A4600210023816B10
:1008A00021F44011531E41EA0351816310BD08B584
:1008B000002300930090009B0B440093009B1A6060
:1008C00008BD08B5024600200090009201F1280002
:1008D000009B184400900098006880B208BD0A464A
:1008E00000214168164B1940114341607047416235
:1008F000826270470A460021416821F01F011143BE
:100900004160704740B109490831096841F400016C
:10091000064A0832116007E004490831096821F4E9
:100920000001024A083211607047000000240140B3
:1009300000280140003C0140FFFEF0FFFDF7F1FF01
:10094000FFFD3FFF0246002013680B400BB1012062
:1009500000E000207047CA430260704770B502464D
:100960000020002300240B125568CEB205EA0604CD
:1009700015681D4015B10CB1012000E0002070BDCC
:1009800000220A12D34303607047000001684FF64B
:10099000FE72114001600021016041608160C16010
:1009A0008D49884208D18C490839496841F00F01C6
:1009B000894A083A51608AE087491431884208D14F
:1009C00085490839496841F0F001834A083A516085
:1009D0007DE081492831884208D17F49083949683A
:1009E00041F470617C4A083A516070E07A493C31C8
:1009F000884208D178490839496841F47041764AFB
:100A0000083A516063E074495031884208D1724914
:100A10000839496841F470216F4A083A516056E03C
:100A20006D496431884208D16B490839496841F4FD
:100A30007001694A083A516049E067497831884253
:100A400008D165490839496841F07061624A083A3D
:100A500051603CE06149884206D1011F096841F0BC
:100A60000F01021F116032E05C491431884208D145
:100A70005A49091F096841F0F001584A121F1160D4
:100A800025E056492831884208D15449091F096890
:100A900041F47061514A121F116018E04F493C3116
:100AA000884208D14D49091F096841F470414B4AF9
:100AB000121F11600BE049495031884207D1474964
:100AC000091F096841F47021444A121F11607047E0
:100AD00010B50022026847F6F0739A430C6A8B68DF
:100AE00023430C6923434C6923438C692343CC691A
:100AF00023434C6A23438C6A23431A430260CB6826
:100B000043600B6883604B68C36010BD00210160C7
:100B100041608160C160016141618161C1610162C7
:100B200041628162704721B1026842F001020260B5
:100B300004E002684FF6FE731A40026070471AB173
:100B400003680B43036002E003688B430360704754
:100B5000416070470146486880B2704701460020F6
:100B6000002201F080531BB11C4B083B1A6802E0C5
:100B7000194B083B1A6802EA01030BB1012000E09F
:100B80000020704700F0805119B11449091F086016
:100B900002E01149083948607047014600200022F0
:100BA00001F080531BB10D4B083B1A6802E00A4B61
:100BB000083B1A6802EA01030BB1012000E00020A3
:100BC000704700F0805119B10449091F086002E024
:100BD0000149083948607047080002400804024093
:100BE00001460020FE4A106800F0380008431060FB
:100BF0007047FB49096821F00801F94A1160114664
:100C00000968014311607047F549096821F0100136
:100C1000F34A116011460968014311607047F148B9
:100C2000EF494860F04848607047EE48EC4948603A
:100C3000ED4848607047EA48006940F08000E849A4
:100C400008617047E648006940F08000E4490861A7
:100C500070470420E249C96801F0010109B101208F
:100C60000EE0DF49C96801F0040109B1022007E084
:100C7000DB49C96801F0100109B1032000E004203C
:100C8000704700B502460423FFF7E3FF034603E085
:100C9000FFF7DFFF0346521E012B01D1002AF7D1D7
:100CA00002B90523184600BD30B5044604254FF4AB
:100CB0003020FFF7E6FF0546042D17D1C84800692C
:100CC00040F00200C649086108464461006940F0EE
:100CD000400008614FF43020FFF7D3FF0546C048BD
:100CE000006941F6FD710840BD490861284630BDE4
:100CF00010B504244FF43020FFF7C3FF0446042C42
:100D000016D1B748006940F00400B54908610846AB
:100D1000006940F0400008614FF43020FFF7B1FF58
:100D20000446AF48006941F6FB710840AC490861D0
:100D3000204610BD00B502460423FFF78AFF034694
:100D400003E0FFF786FF0346521E012B01D1002A64
:100D5000F7D102B90523184600BD10B504244FF49D
:100D60003020FFF7E7FF0446042C16D19C480069A9
:100D700040F004009A4908610846006940F04000CC
:100D800008614FF43020FFF7D5FF0446944800690E
:100D900041F6FB71084092490861204610BD0020D1
:100DA0008F49C96901F0020109B1012000E000206A
:100DB000704730B5A5250424FFF7F1FF00B10025E9
:100DC0004FF43020FFF75DFF0446042C3AD18548EC
:100DD00083498860844888600846006940F02000A4
:100DE00008610846006940F0400008614FF4302077
:100DF000FFF747FF0446042C1BD17948006941F6F0
:100E0000DF710840764908610846006940F010002B
:100E1000086176480580E002FFF733FF0446052CA1
:100E200010D06F48006941F6EF7108406C490861C5
:100E300008E0052C06D06A48006941F6EF710840C9
:100E400067490861204630BD78B506460C46042542
:100E500000200090E802FFF714FF0546042D24D17E
:100E60005F48006940F001005D4908613480E80294
:100E7000FFF707FF0546042D10D1B01C0090200C91
:100E800000990880E802FFF7FCFE05465448006917
:100E900041F6FE7108405249086106E05048006979
:100EA00041F6FE7108404E490861284678BD70B58C
:100EB00004460D460426F002FFF7E3FE0646042E24
:100EC00011D14748006940F001004549086125807B
:100ED000F002FFF7D6FE06464148006941F6FE7172
:100EE00008403F490861304670BD70B505460E4662
:100EF0000424E002FFF7C5FE0446042C17D139484C
:100F000037498860384888600846006940F010001A
:100F100008612E80E002FFF7B4FE0446052C06D0DF
:100F20002F48006941F6EF7108402D4908612046BD
:100F300070BD2DE9F04304464FF6FF763746B046C4
:100F4000B1460425E443E6B2C4F30727C4F30748D7
:100F50004FEA1469E802FFF794FE0546042D49D1D3
:100F600020481F498860204888600846006940F092
:100F700010000861FF2E06D01C4808300680E802E9
:100F8000FFF77FFE0546042D08D1FF2F06D0174836
:100F90000A300780E802FFF774FE0546042D0AD1E7
:100FA000B8F1FF0F07D011480C30A0F80080E8021C
:100FB000FFF767FE0546042D0AD1B9F1FF0F07D0F0
:100FC0000A480E30A0F80090E802FFF75AFE0546E6
:100FD000052D0FD00248006941F6EF71084007E087
:100FE0000020024023016745AB89EFCD00F8FF1FC9
:100FF000664908612846BDE8F08330B505460424FB
:101000004FF43020FFF73DFE0446042C41D16048E8
:101010005E4988605F4888600846006940F02000AB
:1010200008610846006940F0400008614FF4302034
:10103000FFF727FE0446042C22D15448006941F6EC
:10104000DF710840514908610846006940F010000E
:1010500008611DB100205049088002E0A5204E49DA
:1010600008804FF43020FFF70CFE0446052C10D00A
:101070004648006941F6EF7108404449086108E0BC
:10108000052C06D04148006941F6DF7108403F4910
:101090000861204630BDF0B505460E4617460424CB
:1010A0003B483A4988603B488860E002FFF7E9FD29
:1010B0000446042C19D13548006940F0100033492A
:1010C000086147F0F800304328433349891C088001
:1010D000E002FFF7D6FD0446052C06D02B48006938
:1010E00041F6EF710840294908612046F0BD2748C4
:1010F000C069800870472548006A7047002023496E
:10110000096801F0200109B1012000E000207047CA
:1011100029B11E4A126902431C4B1A6104E01B4AA2
:1011200012698243194B1A61704701460020012958
:1011300008D1164AD26902F001020AB1012008E082
:10114000002006E0114AD2680A400AB1012000E0FE
:10115000002070470D49C860704704200B49C968DA
:1011600001F0010109B101200EE00849C96801F050
:10117000040109B1022007E00449C96801F0100127
:1011800009B1032000E00420704700000020024065
:1011900023016745AB89EFCD00F8FF1F10B504466A
:1011A000CC48844208D10121042000F02DFB00210D
:1011B000042000F029FB46E0C748844208D1012101
:1011C000082000F021FB0021082000F01DFB3AE080
:1011D000C248844208D10121102000F015FB0021F3
:1011E000102000F011FB2EE0BD48844208D10121FF
:1011F000202000F009FB0021202000F005FB22E068
:10120000B848844208D10121402000F0FDFA0021B5
:10121000402000F0F9FA16E0B348844208D10121D9
:10122000802000F0F1FA0021802000F0EDFA0AE0C1
:10123000AE48844207D10121801500F0E5FA002173
:10124000A01500F0E1FA10BD10B50121084600F02C
:10125000DBFA0021012000F0D7FA10BD2DE9F041A2
:10126000024600250026002000230024002791F8D4
:1012700003C00CF00F0591F803C00CF0100CBCF18A
:10128000000F03D091F802C04CEA050591F800C0A8
:10129000BCF1000F31D0146800202BE04FF0010C9E
:1012A0000CFA00F3B1F800C00CEA03069E4220D10C
:1012B00083004FF00F0C0CFA03F7BC4305FA03FC54
:1012C0004CEA040491F803C0BCF1280F06D14FF09A
:1012D000010C0CFA00FCC2F814C00AE091F803C03B
:1012E000BCF1480F05D14FF0010C0CFA00FCC2F81C
:1012F00010C0401C0828D1D31460B1F800C0BCF164
:10130000FF0F34DD546800202EE000F1080C4FF090
:10131000010808FA0CF3B1F800C00CEA03069E427B
:1013200021D183004FF00F0C0CFA03F7BC4305FAF0
:1013300003FC4CEA040491F803C0BCF1280F05D16A
:1013400000F1080C08FA0CF8C2F8148091F803C0F8
:10135000BCF1480F07D100F1080C4FF0010808FA62
:101360000CF8C2F81080401C0828CED35460BDE8A9
:10137000F0814FF6FF710180022181700421C1705C
:1013800070470246002093680B400BB1012000E03B
:10139000002070470146886880B2704702460020EE
:1013A000D3680B400BB1012000E0002070470146DC
:1013B000C86880B2704701617047416170470AB1E7
:1013C000016100E041617047C16070474FF48032B5
:1013D0000A43826181618261826982697047024643
:1013E0000020434B18684FF68073184040EA021003
:1013F00008433F4B186070473E49C8617047F0B5DD
:101400000A46002300240021002500F00046B6F122
:10141000004F02D1364EF16901E0354E7168C0F3DC
:10142000034583B200F44016B6F5401F08D121F001
:1014300070612F4E766826F070662D4F7E6012E048
:1014400000F48016B6F5801F06D1032606FA05F4CF
:10145000A14341F0706106E0460D360103FA06F63D
:10146000B14341F0706122B1460D360103FA06F630
:10147000314300F00046B6F1004F02D11C4EF1613D
:1014800001E01B4E7160F0BD30B500228B071C0FD0
:101490000F2303FA04F2164B08338C1053F8243050
:1014A0009343134C08348D1044F8253023468C1098
:1014B00053F824308C07240F00FA04F423430C4C17
:1014C00008348D1044F8253030BD0A49DC310860FD
:1014D0007047000000080140000C0140001001406E
:1014E0000014014000180140001C01400020014090
:1014F0000000014000002042DF48006840F0010089
:10150000DD49086008464068DC490840DA4948601F
:1015100008460068DA490840D7490860084600686C
:1015200020F4802008600846406820F4FE004860EF
:101530004FF41F0088607047CF49096821F480315B
:10154000CD4A11601146096821F480211160B0F57F
:10155000803F03D0B0F5802F0ED106E0C649096860
:1015600041F48031C44A116007E0C349096841F47D
:10157000A021C14A116000E000BF00BF704710B554
:1015800001460022002300204A11012A02D1BA4C50
:10159000236806E0022A02D1B74C236A01E0B64C68
:1015A000636A01F01F02012494401C400CB1012029
:1015B00000E0002010BD38B5002000900024002578
:1015C00000BF3120FFF7DBFF05460098401C00906C
:1015D0000098B0F5A06F01D0002DF2D03120FFF7B8
:1015E000CEFF08B1012400E00024204638BD0146AA
:1015F0000020A14A106820F0F80040EAC100106005
:101600007047A04908607047024600209A4B58680E
:1016100020F47C1042EA01031843974B586070474E
:1016200098490866704701460020934A506820F0A8
:1016300003000843506070478F48406800F00C007A
:101640007047014600208C4A506820F0F0000843A3
:101650005060704701460020874A506820F4E060DF
:1016600008435060704701460020834A506820F4C8
:10167000605040EAC1005060704729B17E4A527AFA
:1016800002437D4B5A7204E07B4A527A82437A4B82
:101690005A7270477B49D831086070470146002074
:1016A000754A506820F4404008435060704700215C
:1016B000714A20321170704A82F82010012802D03D
:1016C00004280AD104E001216B4A2032117005E0A0
:1016D0000521694A2032117000E000BF00BF704749
:1016E0006949086070476449096A0143624A1162A6
:1016F0007047654944390860704730B500210022C1
:10170000002400235C4D6D6805F00C0121B1042913
:1017100005D0082923D105E05C4D056022E05C4D31
:1017200005601FE0544D6D6805F47012524D6D68F0
:1017300005F48034022505EB92421CB9554D554302
:1017400005600BE04C4D6D6805F400351DB14F4D43
:101750005543056002E04E4D5543056002E04B4D98
:10176000056000BF00BF444D6D6805F0F001090938
:10177000494D6B5C0568DD4045603F4D6D6805F483
:10178000E061090A444D6B5C4568DD4085603A4D77
:101790006D6805F46051C90A3F4D6B5C4568DD40DA
:1017A000C560354D6D6805F44041890B3B4D6B5C60
:1017B000C568B5FBF3F5056130BD29B12E4A526904
:1017C00002432D4B5A6104E02B4A526982432A4B53
:1017D0005A61704729B1284A92690243264B9A619F
:1017E00004E0254A92698243234B9A61704729B1EC
:1017F000214AD2690243204BDA6104E01E4AD269D1
:1018000082431D4BDA61704729B11B4AD2680243FB
:10181000194BDA6004E0184AD2688243164BDA604A
:10182000704729B1144A12690243134B1A6104E04C
:10183000114A12698243104B1A61704712494039AC
:10184000086070470F49C86470470B49C8717047FA
:101850000948406A40F08070074948627047014675
:101860000020054A92680A400AB1012000E00020E9
:101870007047014988727047001002400000FFF86D
:10188000FFFFF6FE000042428004424200127A004E
:101890000024F40000093D00140000202400002072
:1018A00010B50446BE48844208D101218014FFF7D8
:1018B000ABFF0021A014FFF7A7FF16E0B948844250
:1018C00008D101210014FFF7ACFF00212014FFF71D
:1018D000A8FF0AE0B448844207D10121C013FFF7F2
:1018E000A0FF0021E013FFF79CFF10BD10B5002200
:1018F000028802F441520B884C8823438C8823438E
:10190000CC8823430C8923434C8923438C8923436C
:10191000CC8923431A430280838B4FF2FF74234008
:1019200083830B8A038210BD2DE9F04F85B00546F5
:101930000C464FF0000902274FF000084FF0010B52
:101940000026B246A88B4FF240010840A88302202F
:101950002884B5F81C90A068022801D100BF38E0A7
:10196000A08810B94FF0010B01E04FF0020B8D4839
:10197000854200D100E000BF6846FFF7BEFEDDF8FB
:1019800000A0E088B0F5007F0AD14FEA1A2000EBF2
:1019900080004000A168B0FBF1F0401D86B20BE072
:1019A0004FEA4B10BAFBF0F000EB80004000A1685A
:1019B000B0FBF1F0401D86B20A20B6FBF0F606F04F
:1019C0000108A6EB0800C0F34F074FF6FF7000EACE
:1019D0000828022F01DBFF2F02DD02274FF000084D
:1019E000E08840EA080038432884A088A189084399
:1019F000618808432188084340F4006040EA0909EF
:101A0000A5F81C9005B0BDE8F08F00210180418051
:101A10008180C180018141818181C1810721018251
:101A200070470021018041808180C1800221816056
:101A300000218181704721B1028842F0400202807A
:101A400004E002884FF6BF731A400280704721B14C
:101A5000828B42F48062828304E0828B4FF6FF33F4
:101A60001A408283704730B5002400230C110125F1
:101A7000A540ABB21AB185881D43858002E08588F8
:101A80009D43858030BD1AB183880B43838002E07B
:101A900083888B43838070478181704701468889A2
:101AA00070474FF6FF62914204D0028842F4807280
:101AB000028004E002884FF6FF631A4002807047FC
:101AC00021B1828842F00402828004E082884FF6CD
:101AD000FB731A408280704702884FF2FF731A40EE
:101AE000028002880A4302807047018841F48051D5
:101AF0000180704721B1028842F40052028004E064
:101B000002884DF6FF731A4002807047024600209B
:101B1000012901D0108B00E0908A70470146088AA5
:101B20007047B1F5804F04D1028842F480420280B0
:101B300004E002884BF6FF731A40028070470246A9
:101B4000002013890B400BB1012000E000207047FA
:101B5000CA4302817047F0B50246002000240023EA
:101B6000002501F00F070126BE40B4B20B1101267B
:101B70009E40B3B2968806EA03051689264016B140
:101B80000DB1012000E00020F0BD10B5002201F0F1
:101B90000F040123A3409AB2D343038110BD000078
:101BA0000030014000380040003C004010B50446C1
:101BB000FE48844208D10121C014FFF725FE002110
:101BC000E014FFF721FEC4E0B4F1804F08D10121F9
:101BD0000846FFF726FE00210120FFF722FEB8E0AD
:101BE000F348844208D101210220FFF71AFE0021A8
:101BF0000220FFF716FEACE0EE48844208D1012136
:101C00000420FFF70EFE00210420FFF70AFEA0E0EB
:101C1000E948844208D101210820FFF702FE002193
:101C20000820FFF7FEFD94E0E448844208D101213A
:101C30001020FFF7F6FD00211020FFF7F2FD88E0ED
:101C4000DF48844208D101212020FFF7EAFD00216E
:101C50002020FFF7E6FD7CE0DA48844208D101212C
:101C60004014FFF7D1FD00216014FFF7CDFD70E0B7
:101C7000D548844209D10121C804FFF7C5FD0021E0
:101C80004FF40020FFF7C0FD63E0D048844209D143
:101C900001210805FFF7B8FD00214FF48010FFF780
:101CA000B3FD56E0CA48844209D101214805FFF737
:101CB000ABFD00214FF40010FFF7A6FD49E0C54839
:101CC000844208D101214020FFF7ABFD00214020D4
:101CD000FFF7A7FD3DE0C048844208D101218020E4
:101CE000FFF79FFD00218020FFF79BFD31E0BB48FF
:101CF000844208D101218015FFF793FD0021A01532
:101D0000FFF78FFD25E0B648844209D10121080480
:101D1000FFF77AFD00214FF48030FFF775FD18E0E2
:101D2000B048844209D101214804FFF76DFD00212C
:101D30004FF40030FFF768FD0BE0AB48844208D158
:101D400001218804FFF760FD00214FF48020FFF798
:101D50005BFD10BD00220288944B98420ED0994B37
:101D600098420BD0B0F1804F08D0914B984205D0EB
:101D7000904B984202D0904B984204D14FF68F730B
:101D80001A404B881A438D4B984207D08C4B98428F
:101D900004D04FF6FF431A40CB881A4302808B8849
:101DA00083850B880385814B98420BD0854B9842E5
:101DB00008D08B4B984205D08A4B984202D08A4B70
:101DC000984201D10B7A038601238382704770B554
:101DD000002400220023058C4FF6FE763540058452
:101DE000028C8388048B4FF68F752C40B51E2C40D7
:101DF0000D882C43751E2A400D892A434D882A439D
:101E00006A4DA8420BD06F4DA84208D0744DA8422D
:101E100005D0744DA84202D0734DA84213D14FF69D
:101E2000F7752A404D892A434FF6FB752A408D8865
:101E30002A434FF6FF652B404FF6FF552B408D8907
:101E40002B43CD892B4383800483CD8885860284F0
:101E500070BD70B5002400220023058C4FF6EF768C
:101E600035400584028C8388048B48F6FF752C402E
:101E70004FF6FF452C400D884FF6FF7606EA052504
:101E80002C434FF6DF752A400D8906EA05152A43D3
:101E90004D8806EA05152A43444DA84202D0494D13
:101EA000A8421DD14FF67F752A404D894FF6FF7627
:101EB00006EA05152A434FF6BF752A408D8806EAC3
:101EC00005152A434FF6FF352B404FF2FF752B4087
:101ED0008D8906EA85052B43CD8906EA85052B43C6
:101EE00083800483CD880587028470BD70B500248B
:101EF00000220023058C4FF6FF6635400584028CD6
:101F00008388848B4FF68F752C404FF6FC752C40E0
:101F10000D882C434FF6FF552A400D894FF6FF766A
:101F200006EA05252A434D8806EA05252A431F4D62
:101F3000A84202D0234DA8421DD14FF2FF752A407E
:101F40004D894FF6FF7606EA05252A434FF6FF3501
:101F50002A408D8806EA05252A434EF6FF752B4058
:101F60004DF6FF752B408D8906EA05152B43CD896B
:101F700006EA05152B4383808483CD8885870284F8
:101F800070BD70B5002200230024058C4EF6FF764C
:101F900035400584038C8488828B48F6FF752A407F
:101FA0004FF6FF452A400D8820E00000002C01403C
:101FB0000004004000080040000C004000100040F9
:101FC0000014004000340140004C0140005001402A
:101FD0000054014000180040001C00400020004058
:101FE0000040014000440140004801404FF6FF76A8
:101FF00006EA05252A434DF6FF752B400D8906EAB2
:1020000005352B434D8806EA05352B43FA4DA8428A
:1020100002D0FA4DA84208D14BF6FF752C408D89AD
:102020004FF6FF7606EA85152C4384808283CD889F
:10203000A0F84050038470BD828B4FF2FF331A40EA
:102040008283828B4FF6FF7303EA01231A43828354
:102050007047F0B50C461546002200210026078C7B
:102060004EF6FF7C07EA0C070784828B018C4FF643
:10207000FF7707EA043640F6FF473A404FF6FF770E
:1020800007EA05273A434FF6FF7707EA03373A4353
:10209000D94FB8420ED0D94FB8420BD0B0F1804FD3
:1020A00008D0D74FB84205D0D64FB84202D0D64F4D
:1020B000B84206D14DF6FF77394046F48057394390
:1020C00005E047F6FF57394044F48057394382838F
:1020D0000184F0BD828B4FF6F3731A408283828BAA
:1020E0000A4382837047F0B50C4615460022002152
:1020F0000026078C4FF6FF6C07EA0C070784828BDB
:10210000018C4FF6FF7707EA04264FF60C773A402A
:102110004FF6FF7707EA03172F433A43B64FB8420B
:102120000ED0B64FB8420BD0B0F1804F08D0B44FAC
:10213000B84205D0B34FB84202D0B34FB84206D12F
:102140004FF6FF57394046F48077394305E04FF2A8
:10215000FF57394044F48077394382830184F0BDCE
:10216000028B4FF2FF331A400283028B4FF6FF734C
:1021700003EA01231A4302837047F0B50C46154663
:10218000002200210026078C4FF6EF7C07EA0C079F
:102190000784028B018C4FF6FF7707EA041640F69E
:1021A000FF473A404FF6FF7707EA03373A434FF6C7
:1021B000FF7707EA05273A438F4FB8420ED08F4F7B
:1021C000B8420BD0B0F1804F08D08D4FB84205D047
:1021D0008C4FB84202D08C4FB84206D14FF6DF7711
:1021E000394046F01007394305E04FF65F77394034
:1021F00044F01007394302830184F0BD028B4FF68F
:10220000F3731A400283028B0A4302837047F0B5CE
:102210000C46154600220021068C4FF6FE773E4004
:102220000684028B018C4FF60C7632407E1C06EA47
:1022300003162E433243704EB0420ED06F4EB04262
:102240000BD0B0F1804F08D06D4EB04205D06D4E2E
:10225000B04202D06C4EB04206D14FF6FD7631400E
:1022600044F00106314305E04FF6F576314044F085
:102270000106314302830184F0BD70B505460C466A
:102280005D4885420ED05D4885420BD0B5F1804F48
:1022900008D05B48854205D05A48854202D05A484A
:1022A000854200D100E000BF208850B92389A28870
:1022B00061882846FFF7ABFFE1882846FFF79EFFBD
:1022C00025E0208804280AD12389A288618828462D
:1022D000FFF753FFE1882846FFF742FF17E0208809
:1022E00008280AD12389A28861882846FFF7FBFEC7
:1022F000E1882846FFF7EEFE09E02389A28861887D
:102300002846FFF7A6FEE1882846FFF795FE70BD38
:102310002DE9F04105460C4600260127608808B9E2
:10232000022600E00026A088012801D1022700E053
:1023300001272088A0B92389A28861882846FFF751
:1023400066FFE1882846FFF759FF23893A46314660
:102350002846FFF712FFE1882846FFF701FF13E048
:102360002389A28861882846FFF707FFE18828466D
:10237000FFF7F6FE23893A4631462846FFF747FF26
:10238000E1882846FFF73AFFBDE8F0810A884B88CC
:102390001A438B881A43CB881A430B891A434B89FB
:1023A0001A438B891A43A0F8442070474FF6FF71F7
:1023B000818000210180C18041800172704700212D
:1023C000018041808180C180018141818181C18101
:1023D0007047002101804180012181800021C1805E
:1023E000018170470021018041808180C18001818D
:1023F0004181818170470000002C01400034014080
:102400000004004000080040000C004021B1028898
:1024100042F00102028004E002884FF6FE731A4087
:102420000280704731B1B0F8442042F40042A0F875
:10243000442005E0B0F84420C2F30E02A0F8442086
:1024400070471AB183890B43838102E083898B43F0
:10245000838170478182704741EA0203A0F84830C7
:1024600070471AB183890B43838102E083898B43D0
:102470008381704701894FF6F872114001817047DE
:102480000A46002101894FF68F73194011430181DB
:10249000704730B504460D4629462046FFF7F0FF49
:1024A000208940F00700208130BD2DE9F04104462D
:1024B0000D4616461F46602D06D13B460122314689
:1024C0002046FFF75AFE05E03B46012231462046F2
:1024D000FFF79DFE29462046FFF7D2FF208940F0F6
:1024E00007002081BDE8F08130B50C46002101894C
:1024F000C9B24FF6FF7505EA032515432543294365
:10250000018130BD2DE9F04105460E46174698463B
:10251000002443463A4631462846FFF7E5FF2C891A
:102520004FF6F870044044F007044FF68F700440F3
:1025300044F070042C81BDE8F081F0B504460D46EE
:1025400016461F463B46324629462046FFF7CCFF3B
:10255000208940F480402081F0BD0185828270474F
:102560000A46002101884FF68F73194011430180FC
:102570007047F0B50C4615461E4600210022002388
:102580000189028B038C4FF6F877394021434FF6CF
:10259000FC473A4040F201173A434FF6DD773B40A3
:1025A0004FF6FF7707EA06172F433B43018102836B
:1025B0000384F0BD0A460021018B4FF68F7319404A
:1025C0001143018370470A460021018B48F6FF73CF
:1025D00019404FF6FF7303EA022319430183704742
:1025E0000A460021818B4FF68F7319401143818376
:1025F00070470A460021818B48F6FF7319404FF659
:10260000FF7303EA022319438183704721B10288D3
:1026100042F08002028004E002884FF67F731A4085
:102620000280704721B1828842F00402828004E077
:1026300082884FF6FB731A408280704721B18288EE
:1026400042F00802828004E082884FF6F7731A4055
:102650008280704721B1828842F00102828004E0CA
:1026600082884FF6FE731A40828070470A46002126
:10267000018B4FF6F77319401143018370470A46E7
:102680000021018B4FF2FF7319404FF6FF7303EAED
:1026900002231943018370470A460021818B4FF6BC
:1026A000F77319401143818370470A460021818BDB
:1026B0004FF2FF7319404FF6FF7303EA02231943E9
:1026C000818370470A460021018B4FF6FB73194046
:1026D0001143018370470A460021018B4FF6FF33F7
:1026E00019404FF6FF7303EA022319430183704731
:1026F0000A460021818B4FF6FB73194011438183F9
:1027000070470A460021818B4FF6FF3319404FF680
:10271000FF7303EA02231943818370470A460021AD
:10272000018B4FF67F7319401143018370470A46AE
:102730000021018BC1F30E014FF6FF7303EA022360
:102740001943018370470A460021818B4FF67F733E
:1027500019401143818370470A460021818BC1F3E0
:102760000E014FF6FF7303EA02231943818370477A
:102770000A460021018C4FF6FD7319401143018474
:1027800070470A460021018C4FF6F7731940114338
:10279000018470470A460021018C4FF6DF7319400F
:1027A0004FF6FF7303EA02131943018470470A4688
:1027B0000021018C4FF67F7319404FF6FF7303EA37
:1027C00002131943018470470A460021018C4FF619
:1027D000FF5319404FF6FF7303EA022319430184A4
:1027E00070470A460021018C4FF2FF7319404FF6E3
:1027F000FF7303EA02231943018470470A4600214C
:10280000018C4DF6FF7319404FF6FF7303EA023354
:1028100019430184704730B5002301248C40A3B2D2
:10282000048C9C430484048C02FA01F5ADB22C4361
:10283000048430BD30B5002304248C40A3B2048C42
:102840009C430484048C02FA01F5ADB22C43048449
:1028500030BD70B50346002000241846183001250D
:102860008D40ACB21D8CA5431D8409B1082909D146
:1028700000EB6100056825F07005056005681543EB
:1028800005600EE00D1FC5F34E052844056825F4CC
:10289000E045056005684FF6FF7606EA02263543F7
:1028A000056070BD21B1028842F00202028004E09E
:1028B00002884FF6FD731A400280704721B10288EA
:1028C00042F00402028004E002884FF6FB731A40D3
:1028D0000280704721B1828842F08002828004E049
:1028E00082884FF67F731A408280704702884FF6C5
:1028F000F7731A40028002880A4302807047828878
:102900004FF68F731A40828082880A438280704714
:1029100002894FF6F8731A40028102890A43028144
:10292000704702894FF67F731A40028102890A4379
:102930000281704781847047818570478186704726
:102940000187704781877047A0F840107047028860
:102950004FF6FF431A40028002880A430280704704
:102960000146888E70470146088F70470146888F60
:1029700070470146B1F8400070470146888C7047A7
:102980000146088D704702460020138A0B400BB1A8
:10299000012000E000207047CA430282704730B532
:1029A0000246002000230024158A05EA01039589C8
:1029B00005EA010413B10CB1012000E0002030BD94
:1029C000CA4302827047000010B50446FB488442A7
:1029D00009D101218803FEF717FF00214FF4804041
:1029E000FEF712FF32E0F648844209D10121480483
:1029F000FEF717FF00214FF40030FEF712FF25E02D
:102A0000F048844209D101218804FEF70AFF002121
:102A10004FF48020FEF705FF18E0EB48844209D10F
:102A20000121C804FEF7FDFE00214FF40020FEF74F
:102A3000F8FE0BE0E548844208D101210805FEF7C5
:102A4000F0FE00214FF48010FEF7EBFE10BD2DE9E3
:102A5000F04786B005460E460024A24600BFA146B8
:102A60000027B08900B100BF2F462C8A4CF6FF70BA
:102A70000440F08804432C82AC894EF6F3100440E5
:102A8000B08831890843718908430443AC81AC8A1A
:102A90004FF6FF400440B0890443AC8201A8FEF722
:102AA0002CFEC648874202D1DDF810A001E0DDF817
:102AB0000CA0A88900F4004040B10AEBCA0000EB6A
:102AC0000A1031684900B0FBF1F807E00AEBCA00D0
:102AD00000EB0A1031688900B0FBF1F86420B8FB04
:102AE000F0F004012009642101FB1089A88900F499
:102AF000004040B1322000EBC900B0FBF1F000F023
:102B00000700044308E0322000EB09106421B0FB09
:102B1000F1F000F00F0004432C8106B0BDE8F0870F
:102B20004FF41651016000218180C18001810C2188
:102B3000418100218181704710B502460020108A32
:102B40004FF2FF0318400B884C8823438C882343A3
:102B5000CC8823431843108210BD0021018041809E
:102B60008180C180704721B1828942F40052828104
:102B700004E082894DF6FF731A4082817047F0B5F8
:102B80000346002400260025002040F66A17B942BB
:102B900000D100BF1846C1F3421401F01F060127FF
:102BA00007FA06F5012C01D10C3004E0022C01D10A
:102BB000103000E014301AB107682F43076002E0BC
:102BC0000768AF430760F0BD1AB1838A0B43838265
:102BD00002E0838A8B4383827047028A4FF6F07348
:102BE0001A400282028A0A430282704782894FF2A7
:102BF000FF731A40828182890A438281704721B122
:102C0000828942F00202828104E082894FF6FD73DC
:102C10001A4082817047028A4FF6DF731A4002829F
:102C2000028A0A430282704721B1028A42F480423A
:102C3000028204E0028A4BF6FF731A400282704758
:102C4000C1F308028280704701468888C0F30800FB
:102C50007047818941F0010181817047028BD2B2B6
:102C60000283028B42EA012202837047028B02F444
:102C70007F420283028B0A430283704721B1828A1A
:102C800042F02002828204E0828A4FF6DF731A400B
:102C90008282704721B1828A42F01002828204E06F
:102CA000828A4FF6EF731A408282704721B1828A7E
:102CB00042F00802828204E0828A4FF6F7731A40DB
:102CC0008282704721B1828942F40042828103E00E
:102CD0008289C2F30E028281704721B1828A42F456
:102CE0000062828204E0828A4FF2FF731A4082827D
:102CF0007047828A4FF6FB731A408282828A0A43A7
:102D00008282704721B1828A42F00202828204E00C
:102D1000828A4FF6FD731A40828270470246002075
:102D2000B1F5007F00D100BF13880B400BB101202B
:102D300000E00020704701F40072B2F5007F00D17E
:102D400000BFCA430280704770B5024600240023CA
:102D50000025002040F66A16B14200D100BFC1F341
:102D6000421501F01F03012606FA03F3012D02D1DB
:102D70009689334006E0022D02D1168A334001E0E5
:102D8000968A33400C12012606FA04F41688344061
:102D900013B10CB1012000E0002070BD10B500227D
:102DA000002340F66A14A14200D100BF0A12012498
:102DB0009440A3B2DC43048010BD00000038014001
:102DC0000044004000480040004C004000500040DB
:102DD00001B5A4B0FE48239000202290FD48D0F811
:102DE0000C011890FB48D0F810011790F948D0F862
:102DF00014011690F748D0F818011590DDE9171066
:102E000009F0EAF921901699189809F0E5F920904F
:102E10001799084609F0E0F91F901599179809F0DD
:102E2000DBF91E901699084609F0D6F91D90DDE9E8
:102E3000151009F0D1F91C901599084609F0CCF944
:102E40001B90DDE9161009F0C7F91A90159918982A
:102E500009F0C2F91990DF48806B0690DD48806B5D
:102E60000590069909F0B8F90890DA48406B04908B
:102E7000D848406B0390049909F0AEF90690D54804
:102E8000006B0490D348006B0390049909F0A4F9F7
:102E90000590069908F0A0FF0790089908F09CFF9C
:102EA000099000F0CFFF1490CA48006B0990149964
:102EB00009F000F81090C748406B0990149908F089
:102EC000F9FF1190C348806B0990149908F0F2FF44
:102ED00012904FF080401B9909F07EF908904FF056
:102EE00080401D9909F078F90790089908F074FF5F
:102EF0004FF07E51099009F06CFAB649C1F81C01F7
:102F00004FF08040199909F067F909904FF080401F
:102F10001A9909F061F90890099909F065FA0146D2
:102F2000AC48C0F820114FF08040209909F054F9C6
:102F300009904FF080401E9909F04EF908900999C8
:102F400008F04AFF0146A348C0F824114FF0804022
:102F5000199909F041F909904FF080401A9909F048
:102F60003BF90890099908F037FF9A49C1F8280100
:102F70004FF080401B9909F02FF908904FF08040E6
:102F80001F9909F029F90790089908F025FF4FF0DB
:102F90007E51099009F01DFA01468E48C0F82C11A7
:102FA0004FF08040219909F017F909904FF08040C7
:102FB0001C9909F011F90890099909F015FA0146D0
:102FC0008448C0F830114FF08040209909F004F98E
:102FD00009904FF080401E9909F0FEF80890099979
:102FE00009F002FA7B49C1F834014FF08040219981
:102FF00009F0F2F809904FF080401C9909F0ECF8C4
:103000000890099908F0E8FE01467248C0F83811A6
:103010004FF080401D9909F0DFF808904FF0804094
:103020001F9909F0D9F80790089908F0D5FE4FF0DC
:103030007E51099009F0CDF901466648C0F83C116F
:10304000D0F8340101460890634809F0C5F80990AA
:103050006048006B01460890099809F0BAF95D498B
:10306000C1F840010846D0F83801014608905A4896
:1030700009F0B2F809905748406B0146089009984A
:1030800009F0A7F901465348C0F84411D0F83C01B3
:1030900001460890504809F09FF809904D48806B10
:1030A00001460890099809F094F901464948C0F88A
:1030B0004811D0F8480107904648D0F83C010690E6
:1030C000079909F089F809904248D0F84401059021
:1030D0004048D0F838010490059909F07DF8079030
:1030E0003C48D0F8400105903A48D0F834010490AB
:1030F000059909F071F80690079908F06DFE08909F
:10310000099908F069FE3349C1F88C000846D0F8E7
:10311000480107900846D0F824010690079909F065
:103120005BF809902B48D0F8440105902948D0F865
:1031300020010490059909F04FF807902548D0F830
:10314000400105902348D0F81C010490059909F02E
:1031500043F80690079908F03FFE0890099908F097
:103160003BFE1C49C1F884000846D0F8480107908E
:103170000846D0F830010690079909F02DF809901B
:103180001448D0F8440105901248D0F82C0104905E
:10319000059909F021F807900E48D0F840010590F4
:1031A0000C48D0F828010490059909F015F806900C
:1031B000079908F011FE0890099908F00DFE0549DD
:1031C000C1F88800129807900846D0F8380105E049
:1031D0009A99193FA41F0020000075440690079992
:1031E00008F0FAFF0990FE48D0F83C0107901198CA
:1031F0000690079908F0F0FF0890099909F0F4F893
:103200000D9012980790F648D0F83401069007996F
:1032100008F0E2FF0990F248D0F83C0107901098BE
:103220000690079908F0D8FF0890099909F0DCF892
:1032300080F000400E9000200F900D980346E94A60
:10324000E9490990249801F0BDF90E980346E74A30
:10325000E5490990249801F0B5F90F980346E44A2E
:10326000E1490990249801F0ADF9DE484068014633
:103270000790249808F0B0FF0890229908F0ACFF5E
:103280000990DC48006801460890099808F0A4FD00
:10329000D8490860D548406801460790249808F04E
:1032A0009BFF0890229908F097FF0990D148406849
:1032B00001460890099808F08FFDCE494860CC4837
:1032C000406801460790249808F086FF08902299EC
:1032D00008F082FF0990C748806801460890099865
:1032E00008F07AFDC3498860084600680490BD482C
:1032F00040680390049908F06FFD0590239908F049
:103300006BFF0790B648806CBB49059008F064FFDE
:103310000690079908F060FD0890249908F05CFF7A
:103320004FF08041099008F0C5FD0A90B14840680F
:103330000490AE4840680390049908F04DFD059054
:10334000239908F049FF0790A548C06CAA49059049
:1033500008F042FF0690079908F03EFD0890249976
:1033600008F03AFF4FF08041099008F0A3FD0B9060
:10337000A048806804909E4840680390049908F033
:103380002BFD0590239908F027FF07909448006DC6
:103390009949059008F020FF0690079908F01CFD58
:1033A0000890249908F018FF4FF08041099008F028
:1033B00081FD0C900C9801460790159808F00CFFC1
:1033C00009900B9801460590169808F005FF0790A4
:1033D0000A9801460490179808F0FEFE0590189987
:1033E00008F0F7FF0690079908F0FEFF089009998A
:1033F00008F0FAFF7A49C1F80C010B9801460790D2
:10340000159808F0E9FE09900C9801460590169869
:1034100008F0E2FE07900A9801460490189808F018
:10342000DBFE0590179908F0D7FC0690079908F085
:10343000D3FC0890099908F0D7FF6949C1F8100139
:103440000A9801460790159808F0C6FE09900C9856
:1034500001460490179808F0BFFE06900B980146AD
:103460000490189808F0B8FE0590069908F0BCFF83
:103470000790169908F0B0FC0890099908F0ACFC88
:103480005749C1F814010A9801460690169808F0A9
:10349000A3FE08900B9801460490179808F09CFE34
:1034A00006900C9801460490189808F095FE059037
:1034B000069908F091FC0790089908F095FF09908B
:1034C000159908F089FC4649C1F818010846D0F85A
:1034D000180106900846D0F818010590069908F0E2
:1034E0007BFE08903E48D0F8140104903C48D0F888
:1034F00014010390049908F06FFE06903848D0F844
:10350000100102903648D0F810010190029908F09D
:1035100063FE04903248D0F80C0102903048D0F895
:103520000C010190029908F057FE0390049908F0ED
:1035300053FC0590069908F04FFC0790089908F095
:103540004BFC099000F07EFC13902548D0F80C014C
:103550000990139908F0AEFC2149C1F80C01084606
:10356000D0F810010990139908F0A4FC1C49C1F887
:1035700010010846D0F814010990139908F09AFC3C
:103580001749C1F814010846D0F818010990139999
:1035900008F090FC1249C1F818014FF080402099C2
:1035A00008F01AFE02904FF080401E9908F014FEB9
:1035B0000190029908F018FF039008F0E1FBCDE9B3
:1035C000040107F0F5FB4FF0C0420C4BCDE90601BA
:1035D00008F0C6F8CDE9080107F0E6FD00490FE064
:1035E000A41F002028000020CDCC4C3E300000203D
:1035F00038000020E805002035FA8E3C66A64C40D5
:10360000C1F800014FF080401D9908F0E5FD0590DC
:103610004FF040401F9908F0DFFD0490059908F035
:10362000E3FE4FF07E51069008F0D6FB08904FF075
:103630008040219908F0D0FD06904FF080401C9901
:1036400008F0CAFD0590069908F0C6FB0790089996
:1036500000F044FB1C49099008F0BEFD1B49C1F86D
:1036600004014FF080401B9908F0B6FD05904FF023
:1036700040401D9908F0B0FD0490059908F0B4FE93
:103680004FF07E51069008F0A7FB08904FF0804065
:10369000199908F0A1FD06904FF080401A9908F0A2
:1036A0009BFD0590069908F097FB0790089900F09C
:1036B00015FB80F000400449099008F08DFD034996
:1036C000C1F8080125B000BD33336542A41F0020B6
:1036D0002DE9F84F0446FE480068FE49086002F0F4
:1036E00048FE054608F0DCFCF94908600021204648
:1036F00008F0A2FC01D100200AE0F5490968F54A6A
:103700001268881A08F008FD0646214608F0D2FB28
:10371000054608F0C5FCF04908600846006808F056
:10372000FBFC0546ED482B46ED4A0A210090ED488A
:1037300001F07EF8EC49204608F04EFD0646EB48C5
:10374000006808F0E9FC0746E4480168384608F0DC
:1037500040FE0546314608F00BFD04D2E249204602
:1037600008F03AFD22E0E249204608F035FD064621
:10377000DE48006808F0D0FC0746D84801683846A3
:1037800008F027FE0546314608F0F2FD04D2D8497C
:10379000204608F021FD09E0D448006808F0BCFC90
:1037A0000546CE480168284608F013FED149086056
:1037B000D1480168CF48006808F016FE8146CF491D
:1037C000204608F009FD824651464FF07E5008F031
:1037D00071FB80464FF07E5108F0FEFA07463946ED
:1037E0004FF07E5008F066FB0646494608F0F4FCB0
:1037F0000546C1480168284608F0EEFABE4908604F
:10380000BB49204608F0E8FC83460021BA4800681E
:1038100008F0AEFD02D2B848006803E0B648006880
:1038200080F000408146594608F044FB07460021DD
:1038300008F09EFC01D2002034E0AD49204608F09B
:10384000CBFC83460021AC48006808F091FD02D211
:10385000A948006803E0A848006880F0004081465D
:10386000594608F027FB07464FF07E5108F080FDCF
:1038700002D24FF07E5015E09D49204608F0ACFC86
:10388000814600219C48006808F072FD02D29A48E7
:10389000006803E09848006880F000400746494609
:1038A00008F008FB804693480168404608F094FC05
:1038B00006468E48006808F02FFC8246314608F024
:1038C0008BFA054608F0ECFB88490860BDE8F88FE4
:1038D00070B504467E4800688949086083480068DE
:1038E000884908608849D1F88C0008F0D9FB8749DD
:1038F00008608748874988608448006808F00CFCA5
:10390000844908607F48006808F006FC81494860E7
:103910008148C860204608F017FC06467F4908F039
:103920005BFC05467B4900F0E8FD79487C498860EE
:103930007848406908606648006808F0EDFB7849FF
:1039400048607848C860204608F0FEFB0646734988
:1039500008F042FC0546724900F0CFFD704840690E
:10396000714908606B484069C86070BD00206949B2
:10397000486108616A4948610861704710B5684943
:103980004869002108F0F4FB03D80020674908606B
:103990001CE063494869664908F01EFC63490860F9
:1039A00000216248006808F0E3FB01D200200BE030
:1039B0004FF07E515D48006808F0DAFC02D24FF00B
:1039C0007E5001E0594800685849086010BD2DE953
:1039D000F84F4D4AD2F80011D2F8000108F0FCFB74
:1039E0000546494AD2F80411D2F8040108F0F4FB64
:1039F0000646294608F0F0F9044600F023FA009044
:103A00004C49009808F0B4FC01D24A4800904A4959
:103A1000009808F04FFA0090009808F0B1F90646B7
:103A200000F0E2FA04463849B1F9540708F074FB93
:103A30008046214608F03EFA054608F031FB01B207
:103A40003148A0F85417009808F09AF9064600F09B
:103A5000CBFA05462C49B1F9560708F05DFB8046C4
:103A6000294608F027FA044608F01AFB01B2264856
:103A7000A0F856172A49486908F082F907462F4AE4
:103A80002F4B07F06DFE054607F08EFB824600F0D7
:103A900019F981461C49B1F9540708F03DFB8346EA
:103AA000494608F099FB044608F0FAFA01B21648B4
:103AB000A0F854171A49486908F062F907461F4AE6
:103AC0001F4B07F04DFE054607F06EFB824639E0BE
:103AD000800000208400002088000020900000204A
:103AE00094000020D81600200000FAC48C000020AA
:103AF0000000FA44980000209C000020C3F54840D4
:103B00007400002078000020A41F00207C0000200A
:103B1000CDCC4C3FA8160020000048436F12833ADA
:103B2000C01600200000C842F40500205400002008
:103B30000AD7A33C0000F041F62865429A9999996A
:103B40009999C93F00F0BEF881465A49B1F9560724
:103B500008F0E2FA8346494608F03EFB044608F0C6
:103B60009FFA01B25348A0F85617B0F85817B0F8AA
:103B70005407084401B24F48A0F85817B0F85A1734
:103B8000B0F85607084401B24A48A0F85A1701464F
:103B9000B1F95827B1F95C17501A07F07AFD804641
:103BA000454A464B07F0DCFD06460F464149B1F950
:103BB0005C0707F06EFD824632463B4607F026FB67
:103BC000044607F037FD01B23A48A0F85C170146F9
:103BD000B1F95A27B1F95E17501A07F05AFD82461B
:103BE000354A364B07F0BCFD06460F463149B1F960
:103BF0005E0707F04EFD804632463B4607F006FB67
:103C0000044607F017FD01B22A48A0F85E17B0F984
:103C10005C17B0F96807081A642190FBF1F420469C
:103C200008F07AFA2349C1F86C070846B0F85C1727
:103C3000A0F86817B0F95E17B0F96A07081A64218E
:103C400090FBF1F4204608F067FA1A49C1F87007B2
:103C50000846B0F85E17A0F86A170246D2F8741743
:103C6000D2F86C0708F0C0FB0546154908F0B4FA15
:103C700004461048D0F87417204608F0ADF80D49F6
:103C8000C1F874070A46D2F87817D2F8700708F01E
:103C9000ABFB05460A4908F09FFA04460548D0F8F0
:103CA0007817204608F098F80249C1F87807BDE86F
:103CB000F88F0000A41F00209A9999999999C93FFB
:103CC000CDCCCC3D10B504460021204608F050FB79
:103CD00001D8204610BD84F00040FBE72DE9FE4FDF
:103CE000824688460021504608F0A6F904D00021FB
:103CF000404608F0A1F901D1002498E05046FFF7B2
:103D0000E1FF01904046FFF7DDFF0290DDE9010190
:103D100008F02EFA05D2DDE9010108F0CBF80746DC
:103D200004E0DDE9011008F0C5F80746FD49384612
:103D300008F01EFA01D23D462BE04FF0874138468D
:103D400008F04AFA83464FF07C5108F04DFB81465B
:103D5000484608F0A5F90646304608F0DDF98346E6
:103D6000494608F036FB8146EF4850F82650024697
:103D700052F826100346721C53F8220008F034FB58
:103D80004946009008F028FA8346294608F024F8AE
:103D90000546DDE9011008F0EBFA20D2002140468B
:103DA00008F0E6FA09D80021504608F0E1FA01D8F7
:103DB0002C463CE085F0004439E0DC4C00215046C4
:103DC00008F0D6FA05D82946204608F00DFB04462F
:103DD0002DE02146284608F007FB044627E0002195
:103DE000504608F0C5FA11D8D14C0021404608F0E1
:103DF000BFFA05D82946204608F0F6FA044616E030
:103E00002946204607F0E8FF044610E0C94C00218F
:103E1000404608F0ADFA05D82946204607F0DCFFF9
:103E2000044604E02946204608F0DEFA044620460F
:103E3000BDE8FE8F70B504460D4621462846FFF7C3
:103E40004DFF70BD2DE9F05F04464FF07F594FF0F4
:103E50007C51204608F0C0F9824625462E46B648D9
:103E6000A0EB660635462946504608F0B5F983466C
:103E7000294608F0B1F98046494608F0AAFA0746F3
:103E8000294608F0A9F905462946504608F0A4F944
:103E90008346294608F0A0F98046494608F099FA79
:103EA0000746294608F098F905462946204608F0B5
:103EB00093F9BDE8F09F2DE9FC5F06460F4600220E
:103EC00013463046394607F00FFC14D24FF0C0427B
:103ED0009A4B3046394607F043FC82464FF0C042C9
:103EE000974B07F093F9804632463B4607F038FC83
:103EF00004460D4613E04FF0C042904B3046394621
:103F000007F02EFC80464FF0C0428D4B07F05CFD61
:103F1000824632463B4607F023FC04460D4600220B
:103F200013462046294607F0DFFB19D20022854BB5
:103F30002046294607F06AF980464FF04042824BFE
:103F400007F00EFC824600227E4B07F05FF9224606
:103F50002B46CDE9000107F003FC04460D4618E0AE
:103F60000022784B2046294607F020FE80464FF07D
:103F70004042764B07F0F4FB82460022714B07F07B
:103F800045F922462B46CDE9000107F0E9FB04463E
:103F90000D4620462946BDE8FC9F2DE9F047044622
:103FA0000D464FF0010A6A4A6A4B2046294607F03F
:103FB000D5FC09D8664A674B2046294607F0F6FD2E
:103FC00004460D464FF0FF3A504607F062FB0646A6
:103FD0000F4620462946FFF76EFF804632463B4695
:103FE00007F0BEFBBDE8F0872DE9F84F04460D460B
:103FF00001200090564A584B2046294607F006F902
:1040000004460D46524A534B2046294607F0A6FC6B
:104010000AD84FF0FF3000904D4A4E4B20462946BB
:1040200007F0C4FD04460D46009807F032FB064633
:104030000F4620462946FFF7B0FF804632463B46F2
:1040400007F08EFB824607F0AFF8BDE8F88F2DE948
:10405000F04107460C4616462146384608F088F9D6
:104060000BD23146384608F0BFF9054621462846AE
:1040700008F07EF80CD225460AE03146384607F0B3
:10408000ABFE05462146284608F072F900D22546C7
:104090002846BDE8F0812DE9F04704460F46154655
:1040A00085F000493946484607F096FE804621468D
:1040B00008F05EF80AD23946284607F08DFE8046A1
:1040C000214608F055F901D23E4600E0264630462A
:1040D000BDE8F0872DE9F04F85B0074688461546C4
:1040E0009946DDE90E6431464FF07C5008F074F8D3
:1040F0004946049008F070F882460021284608F0EE
:1041000037F901D2284601E085F000408346514648
:1041100008F02EF824D21149404608F05DF8804698
:104120006BE000008180803BA0000020DB0F494055
:10413000DB0FC93FDB0FC9BFDF59375F2FF0D93F16
:10414000305FF43F0000F03FCCCCCCBFCCCCCC3FB8
:10415000F1D4C853FB210940FB21F93F9A99993FBB
:104160004946304608F038F883460021284608F0D2
:10417000FFF801D2284601E085F00040824659460A
:1041800007F0F6FF05D26D49404608F025F8804655
:1041900033E00021284608F0EBF801D2284601E080
:1041A00085F000408246494607F0E2FF06D24FF014
:1041B0007C51404608F010F880461EE049464FF01A
:1041C000804008F009F883460021284608F0D0F81E
:1041D00001D2284601E085F000408246594607F0AA
:1041E000C7FF05D25649404607F0F6FF804604E077
:1041F0005449404607F0F0FF80462846216808F001
:10420000F3F851490490404607F0E6FF3946009024
:1042100007F0E2FF014601904FF07E5007F04AFEA2
:1042200083464FF07E5107F0D7FD014602904FF0D4
:104230007E5007F03FFE0390049907F0CDFF8246C1
:10424000216807F0C9FD206086F0004B49465846BA
:1042500007F0C2FF8246216808F08AF806D286F08D
:10426000004A4946504607F0B7FF0EE0494630463F
:1042700007F0B2FF8246216807F07AFF04D2494670
:10428000304607F0A9FF00E020682060284621683A
:1042900008F0AAF805B0BDE8F08F70B504460D46E9
:1042A00000222A4B2046294607F058FB06D200225E
:1042B000274B2046294607F079FC70BD0022254B8C
:1042C0002046294607F010FA06D20022204B20464D
:1042D000294606F09BFFF0E720462946EDE710B59A
:1042E00004461D49204608F043F804D21B492046E5
:1042F00008F07AF810BD1A49204607F039FF04D2B9
:104300001649204607F068FDF4E72046F2E72DE95C
:10431000F04104460E4686F000472146384607F035
:1043200027FF06D23146204607F022FF01D20025A2
:1043300000E025462846BDE8F0810000CDCC4C3F8A
:10434000CDCC4C3ECDCCCC3DC3F5C84000806640C2
:1043500000807640008066C0000034430000B44313
:10436000000034C32DE9F04704460D461646314699
:10437000284607F031FF804631464FF07E5008F066
:1043800033F88146214607F027FF0746414607F0EC
:1043900023FDBDE8F0872DE9FF5F88B0924699467E
:1043A000DDF85CB0ABF1010004B208E0601E0AEB7E
:1043B000C00103C90AEBC40203C2601E04B2002C90
:1043C000F4DCDDE90801CAE9000100252E460024DD
:1043D00018E0169800EBC40003C8CDE902010AEB0F
:1043E000C40003C8CDE90001DDE9022307F0B8F9F4
:1043F0002A463346CDE9040106F008FF05460E467D
:10440000601C04B25C45E4DB1998401E04B208E06D
:10441000601E09EBC00103C909EBC40203C2601EA0
:1044200004B2002CF4DC0027B846012418E01898E8
:1044300000EBC40103C9CDE9020109EBC40003C8C4
:10444000CDE90001DDE9022307F08AF93A46434647
:10445000CDE9040106F0DAFE07468846601C04B286
:1044600019988442E3DB3A4643462846314607F032
:104470009DFBC9E90001D9E90001CDE90601DDE9AB
:1044800006010CB0BDE8F09F2DE9F04106460C4650
:104490000021E06807F06CFF15D2E06880F000476B
:1044A0003846616907F064FF03D2E06880F000409D
:1044B00007E0E168606907F05BFF01D2E06800E0B7
:1044C0006069054600E065692946206807F084FCBC
:1044D000A061A169606807F087FF0746A16807F03F
:1044E0007BFE20613046216907F076FE0746616950
:1044F00007F072FC6061BDE8F0812DE9F0410546EE
:104500000C462169206807F067FC0746294607F03A
:1045100063FE0646616907F05FFC6061616960687F
:1045200007F062FF0646A16807F056FE20610021F1
:10453000E06807F01DFF14D2E06880F000463046C6
:10454000216907F015FF03D2E06880F0004007E022
:10455000D4E9031007F00CFF01D2E06800E0206905
:104560002061BDE8F0812DE9FE4F06460F46154655
:104570001C462846216807F037FFFD490290304667
:1045800007F02AFE3946009007F026FE014601900A
:104590004FF07E5007F08EFC83464FF07E5107F0BF
:1045A0001BFC824651464FF07E5007F083FC81464B
:1045B000029907F011FE8046216807F00DFC20608B
:1045C000BDE8FE8F2DE9F0470746884614461D4694
:1045D00023462A4639464046FFF7C5FF002120689A
:1045E00007F0C6FE01D2206802E0206880F000409B
:1045F000064686F000492946484607F0B9FE02D231
:1046000086F0004007E03146284607F0B1FE01D2AF
:10461000304600E028466060BDE8F0872DE9F04FA5
:1046200089B005468A4614461E460120089000209F
:1046300007904FF0010B0120069005904FF0000805
:104640004FF0000900200490A068E0602078401C32
:10465000C0B22070504501DB0020207021781298F4
:1046600045F82100304607F06FFD0390E26812998B
:10467000881A07F051FD0290039907F01BFC804651
:104680000021404607F074FE01D2404601E088F068
:1046900000404FF07E51039007F06AFD26D230466D
:1046A00007F052FD00210290404607F061FE01D262
:1046B000404601E088F000400190029907F08CFD2F
:1046C0004FF08041039007F053FD02D24FF00008F5
:1046D0000CE00021404607F04BFE01D2012001E032
:1046E0004FF0FF30039007F017FD8046D4F80C9090
:1046F00000BF00270DE055F82700A0EB090155F891
:104700002700A0EB0902049801FB02000490781C2A
:1047100007B25745EFDB61680498401A00280DDDA9
:10472000089808B9002006900120089005980128F3
:1047300001D1801E00E00120059007E000200890D4
:10474000B34503DA0BF1010000F0FF0B0498606041
:1047500000200490059807F0DFFC4146009007F028
:104760003BFD0290484607F0D7FC0190029907F004
:1047700033FB039007F094FC81460798401CC0B2BD
:104780000790B04201DD00200690BBF1020F01DB73
:104790000020069006980128ABD0C4F80890D4E910
:1047A0000201401A206109B0BDE8F08F2DE9F05FE9
:1047B00081460F4690469A460A9E98F80000401C93
:1047C000C0B288F80000B84202DB002088F8000080
:1047D00098F8000049F820A0002405E059F82400CA
:1047E00046F82400601CC4B2BC42F7DB00241AE087
:1047F000002512E06A1C56F8221056F8250007F032
:10480000B7FD08D2681C56F820B056F8251046F8B7
:10481000201046F825B0681CC5B2781E001BA842BF
:10482000E8DC601CC4B2781EA042E1DCBDE8F09F69
:104830002DE9FC5F06460F46154698460C9CB94686
:104840002888401C80B22880484501DB0020288051
:10485000288856F820A0288846F82080484607F087
:1048600073FC51460190404607F0BEFD009001994F
:1048700007F020FB8346216807F0AEFA206040462F
:10488000216807F0B1FD3B49009007F071FC01D2AF
:10489000384810E04046216807F0A6FD4FF07E51F1
:1048A000009007F065FD02D24FF07E5003E04046D5
:1048B000216807F099FD3049019007F08DFC83468F
:1048C000216807F089FA2060BDE8FC9F2DE9FF5FB1
:1048D00086B014461D46DDF850A0DAE90063324682
:1048E0002046294607F062F9804689462049069805
:1048F00007F072FC0090079907F06EFC834659465A
:104900004FF07E5007F0D6FA4FF07E51019007F03D
:1049100063FA074639464FF07E5007F0CBFA064659
:1049200007F02EFA42464B46CDE9020106F018FF89
:10493000CDE90401DAE90063324606F067FCCAE912
:1049400000010AB0BDE8F09F2DE9F04105460E4692
:1049500014463046216807F047FD0746294607F010
:1049600007FD0BD22846216807F036FA206017E0D1
:10497000C3F5C840000080BFACC5273785F00047AD
:104980003046216807F030FD8046394607F0F0FBDD
:1049900005D22846216807F01CFD206000E0266053
:1049A000BDE8F0812DE9FF5F06460F4690461D46A3
:1049B0000E9C4046216807F017FD1E4903903846BB
:1049C00007F00AFC3146009007F006FC0146019012
:1049D0004FF07E5007F06EFA83464FF07E5107F09D
:1049E000FBF9824651464FF07E5007F063FA029081
:1049F000039907F0F1FB8146216807F0EDF920608B
:104A000085F000494846216807F0B2FC02D285F0E3
:104A1000004007E02946206807F0AAFC01D228469A
:104A200000E0206820604046216807F0DDFC04B00B
:104A3000BDE8F09FC3F5C84008B501210846FCF762
:104A4000BCFE01214FF40170FCF7C4FE0220ADF85A
:104A5000000000208DF8030069463948FCF7FEFB92
:104A600008BD00B591B03748FBF790FF3648069077
:104A700036480790002008900120099000200A90F5
:104A800080200B9040000C9080000D9020200E9014
:104A900000020F900020109006A92A48FCF718F891
:104AA00001212848FCF73FF80020019001208DF8F3
:104AB00008008DF809004FF4602003900020049056
:104AC00001208DF8140001A91F484C38FBF75DFD4B
:104AD0004FF40040FCF7E2FD0523012211461A487D
:104AE0004C38FBF7EAFD012117484C38FBF784FDF1
:104AF000012115484C38FBF774FD13484C38FBF77F
:104B000092FD00BF10484C38FBF792FD0028F9D108
:104B10000D484C38FBF796FD00BF0B484C38FBF7AF
:104B200096FD0028F9D1012107484C38FBF799FD83
:104B300011B000BD10B5FFF77FFFFFF792FF10BD6A
:104B400000080140080002404C240140A404002059
:104B500000BF00BF00BF00BF704708B5012108209B
:104B6000FCF738FE1020ADF8000003208DF802009D
:104B700014208DF803006946DA48FCF76FFB082023
:104B8000ADF8000003208DF8020014208DF803001A
:104B90006946D448FCF762FBFFF7DAFFFFF7D8FF5E
:104BA00008BD00B50820CF4910310860102008600A
:104BB000FFF7CEFFCB480830006808B9012000E0BD
:104BC000002000F0080008B1002000BD0820C54901
:104BD00014310860FFF7BCFFC2480830006800F0DD
:104BE000080008B10020F0E70820BE491431086031
:104BF000FFF7AEFF0120E8E700B51020B9491431F6
:104C00000860FFF7A5FF0820B64914310860FFF7D8
:104C10009FFF1020B34910310860FFF799FF08206B
:104C2000B04910310860FFF793FF00BD00B51020B8
:104C3000AC4914310860FFF78BFF0820A9491431F3
:104C40000860FFF785FF1020A64910310860FFF7C4
:104C50007FFF1020A34914310860FFF779FF00BDE2
:104C600000B510209F4914310860FFF771FF08203C
:104C70009C4910310860FFF76BFF102099491031F3
:104C80000860FFF765FF1020964914310860FFF7B0
:104C90005FFF00BD00B5002210209249143108606A
:104CA000FFF756FF08208F4910310860FFF750FFCB
:104CB00010208C4910310860FFF74AFF89480830FE
:104CC000006800F0080038B1501CC2B2C82A03DDE9
:104CD000FFF792FF012000BD1020824914310860C7
:104CE000FFF736FF0020F6E700B508211BE0102291
:104CF0007C4B14331A60FFF72BFF00F0800222B1C7
:104D00000822784B10331A6003E00822754B1433E5
:104D10001A604206100EFFF71BFF1022714B103372
:104D20001A60FFF715FF0A00A1F10103D9B2DED125
:104D300010226C4B14331A6000BD10B503460824D2
:104D40000022082067491031086015E05006020E65
:104D50001020644914310860FFF7FAFE1020614901
:104D600010310860FFF7F4FE5E480830006800F07C
:104D7000080008B142F001022000A4F10101CCB208
:104D8000E4D1102057491431086013B1FFF74EFFEA
:104D900001E0FFF765FF104610BD70B504460D46F3
:104DA0001646FFF7FEFE6106080EFFF79DFFFFF7B0
:104DB00071FF18B1FFF720FF012070BD2846FFF7F3
:104DC00093FFFFF767FF3046FFF78EFFFFF762FFA5
:104DD000FFF712FF0020F0E770B504460D461646B7
:104DE000FFF7DFFE6106080EFFF77EFFFFF752FFB9
:104DF00018B1FFF701FF012070BD2846FFF774FFCF
:104E0000FFF748FFFFF7CDFE012101EB4401C8B2D7
:104E1000FFF76AFFFFF73EFF0020FFF78EFF3070BD
:104E2000FFF7EAFE0020E7E7F0B505460E46174615
:104E30001C46FFF7B6FE6906080EFFF755FFFFF7A1
:104E400029FF18B1FFF7D8FE0120F0BD3046FFF76B
:104E50004BFFFFF71FFF05E014F8010BFFF744FFBE
:104E6000FFF718FF3800A7F10101CFB2F4D1FFF727
:104E7000C3FE0020E9E7F0B506460F4614461D467E
:104E8000FFF78FFE7106080EFFF72EFFFFF702FFF8
:104E900018B1FFF7B1FE0120F0BD3846FFF724FF3F
:104EA000FFF7F8FEFFF77DFE012101EB4601C8B2D6
:104EB000FFF71AFFFFF7EEFE0DE0012C04D10020F2
:104EC000FFF73BFF287003E00120FFF736FF287053
:104ED0006D1C601EC4B2002CEFD1FFF78DFE0020C8
:104EE000DAE70000000C014070B504460D4600F002
:104EF00069FB44F0800000F045FBE8B200F042FBA3
:104F000000F059FB70BD70B50446002500F05AFB57
:104F100004F07F0000F036FB232004F0BBFEFF20EE
:104F200000F030FB054600F046FB284670BD70B52A
:104F300004460D4629462046FFF7D6FF2D2004F0F3
:104F4000A9FE70BD70B504462046FFF7DCFFC5B270
:104F5000142004F09FFE284670BD2DE9F041002189
:104F60007F20FFF7E4FF01215520FFF7E0FF072135
:104F70005020FFF7DCFF0E217F20FFF7D8FF00262F
:104F800010E010214320FFF7D2FF4720FFF7DAFFA0
:104F90000546082D00D107E0701CC6B2032E01D1D2
:104FA000BDE8F081032EECDB00BF6720FFF7CAFFEE
:104FB000054605F08000802804D104214820FFF731
:104FC000B6FF03E002214820FFF7B1FF00217F2058
:104FD000FFF7ADFF7B215120FFF7A9FF00215020F3
:104FE000FFF7A5FF00215520FFF7A1FF0E217F202D
:104FF000FFF79DFF7320FFF7A5FF05469DBB7020BF
:10500000FFF7A0FF04461C2C03DC04F10E00C4B221
:1050100002E004F10B00C4B23F2C00DD3F247120FC
:10502000FFF790FF0746C7EB071000EB4000642135
:1050300090FBF1F0C7B200217F20FFF778FFAD2190
:105040006120FFF774FF70215120FFF770FF0E21E0
:105050007F20FFF76CFF21467020FFF768FF39467D
:105060007120FFF764FF00217F20FFF760FFAD2173
:105070006120FFF75CFF03217F20FFF758FF00212D
:105080004020FFF754FF05217F20FFF750FFB32199
:105090004120FFF74CFFF1214320FFF748FF142187
:1050A0004520FFF744FF32215B20FFF740FF34210A
:1050B0005F20FFF73CFF08217B20FFF738FF062128
:1050C0007F20FFF734FF1B214420FFF730FFBF2173
:1050D0004020FFF72CFF3F214E20FFF728FF08213B
:1050E0007F20FFF724FF20216520FFF720FF1821F4
:1050F0006A20FFF71CFF09217F20FFF718FFAF216F
:105100004F20FFF714FF40215F20FFF710FF8021A1
:105110004820FFF70CFF80214920FFF708FF772187
:105120005720FFF704FF78216020FFF700FF782168
:105130006120FFF7FCFE08216220FFF7F8FE5021F6
:105140006320FFF7F4FE0A217F20FFF7F0FE6021C5
:105150004520FFF7ECFE00217F20FFF7E8FE11213C
:105160004D20FFF7E4FE80215520FFF7E0FE2121CE
:105170007420FFF7DCFE1F217520FFF7D8FE782191
:105180004A20FFF7D4FE78214B20FFF7D0FE0821FC
:105190004420FFF7CCFE50214520FFF7C8FEFF2139
:1051A0006420FFF7C4FE1F216520FFF7C0FE142115
:1051B0007F20FFF7BCFE67216520FFF7B8FE0821BE
:1051C0006620FFF7B4FE70216320FFF7B0FE1521C3
:1051D0007F20FFF7ACFE48210846FFF7A8FE072115
:1051E0007F20FFF7A4FE0D214120FFF7A0FE142130
:1051F0004320FFF79CFE0E214B20FFF798FE0F2166
:105200004520FFF794FE42214420FFF790FE8021C5
:105210004C20FFF78CFE10217F20FFF788FE022133
:105220005B20FFF784FE07217F20FFF780FE4121EE
:105230004020FFF77CFE00217020FFF778FE0A2057
:1052400004F034FD44213220FFF771FE07217F2056
:10525000FFF76DFE40210846FFF769FE06217F201B
:10526000FFF765FEF0216220FFF761FE0021632059
:10527000FFF75DFE0D217F20FFF759FEC02148207A
:10528000FFF755FED5216F20FFF751FE00217F204B
:10529000FFF74DFEA0215B20FFF749FEA8214E201D
:1052A000FFF745FE50215A20FFF741FE80214020A4
:1052B000FFF73DFE00BF73E610B500203C490860D3
:1052C0003C480078492801D1FFF747FE10BD10B5D2
:1052D00000F078F900F06FF9642004F0E7FC5A213F
:1052E0003A20FFF701FE642004F0E0FC0020FFF705
:1052F0000AFE30490870002407E0A11CC8B2FFF77D
:1053000002FE142004F0C6FC641C052CF5DBFFF73C
:10531000D3FF00202849086010BD0A7803780B707D
:105320000270704710B5002400F04CF9012004F021
:10533000B1FC162000F026F9232004F0ABFC00BFDE
:1053400005E0002000F01EF91C490855641C0C2CD7
:10535000F7DB1A4880781949C97840EA012001B280
:105360001748A0F85417154800791449497940EABC
:10537000012001B21248A0F8561700F01CF90120D4
:1053800004F088FC0D490B31481EFFF7C6FF0D489D
:10539000006860B109488079192808DA074840890F
:1053A000B0F5F85F03DB002004498880488010BD19
:1053B000AC040020A8040020B00400200017002046
:1053C000A41F0020BC04002000B587B001210420E8
:1053D000FCF700FA01211020FCF7FCF90121080379
:1053E000FCF7F8F9E020ADF8040001208DF8060084
:1053F00018208DF8070001A97648FBF72FFF102031
:10540000ADF8040001208DF8060010208DF807008B
:1054100001A97048FBF722FF10216E48FBF7CBFF74
:105420001020ADF8040001208DF8060010208DF842
:10543000070001A96848FBF711FF0020ADF808003C
:105440004FF48270ADF80A000020ADF80C00ADF802
:105450000E00ADF810004FF40070ADF812001820E7
:10546000ADF814000020ADF816000720ADF81800C4
:1054700002A95A48FCF73AFA01215848FCF7DBFA2E
:1054800007B000BD10B5044600BF02215348FCF729
:1054900056FB0028F9D021465048FCF7FDFA00BF22
:1054A00001214E48FCF74BFB0028F9D04B48FCF794
:1054B000F5FAC0B210BD10B510214648FBF77BFFCE
:1054C00010BD10B510214348FBF777FF10BD10B594
:1054D00010214148FBF76FFF10BD10B510213E4869
:1054E000FBF76BFF10BD00B587B001210920FCF769
:1054F00071F901218803FCF77AF94FF46040ADF8A7
:10550000040018208DF8070003208DF8060001A97B
:105510003348FBF7A3FE4FF48050ADF80400102091
:105520008DF8070003208DF8060001A92C48FBF731
:1055300095FE4FF480512A48FBF73DFF0020ADF85F
:1055400008004FF48270ADF80A000020ADF80C009E
:10555000ADF80E00ADF810004FF40070ADF8120079
:105560000020ADF81400ADF816000720ADF81800C3
:1055700002A91C48FCF7BAF901211A48FCF75BFAAA
:1055800007B000BD10B5044600BF02211548FCF766
:10559000D6FA0028F9D021461248FCF77DFA00BF60
:1055A00001211048FCF7CBFA0028F9D00D48FCF790
:1055B00075FAC0B210BD10B54FF480510848FBF722
:1055C000FAFE10BD10B54FF480510548FBF7F5FE0B
:1055D00010BD0000000801400010014000300140F3
:1055E000000C01400038004010B588B0044601218D
:1055F000C804FCF7FCF801211120FCF7EBF84FF48C
:105600008060ADF80C0003208DF80E0018208DF896
:105610000F0003A95148FBF721FE4FF40060ADF8DD
:105620000C0004208DF80F0003A94C48FBF716FE70
:1056300034208DF8080003208DF809008DF80A0049
:1056400001208DF80B0002A8FAF70FFF0020ADF83B
:105650000000ADF802004FF40070ADF80400002027
:10566000ADF8060069463E48FDF766FA049400204E
:10567000ADF81400ADF81600ADF81800ADF81C0038
:105680000C20ADF81A0004A93548FDF7E0F9012215
:1056900040F225513248FDF772FA01213048FDF7FA
:1056A00062FA08B010BD10B52D48008800F008005F
:1056B00018B12B48001D0088C4B240F2255128487B
:1056C000FDF742FB58B140F225512548FDF766FB36
:1056D0002348001D0088C4B2204600F0A9F940F21A
:1056E00027711F48FDF730FB50B11E480178007844
:1056F000401C1C4A10701C48405C1949091D088058
:105700001848007819490978884207DB14480C309A
:10571000008820F0800012490C31088010BD70B55F
:1057200004460D4600200AE0225C10490B780978F7
:10573000491C0E4E31700C49CA54411CC8B2A842D3
:10574000F2DB07480C30008800F0800028B9012205
:1057500040F227710248FDF712FA70BD00100140B7
:10576000004C0040C40400200C190020C504002097
:1057700000B587B001210220FCF739F840F2E7308C
:10578000ADF814000320ADF810000020ADF81600AD
:10579000ADF812008DF8180004A95648FCF7DAFAA3
:1057A0006020ADF800000120ADF802000020ADF847
:1057B0000600ADF8080069464E48FCF708FB0821D2
:1057C0004C48FCF753FF69464A48FCF742FB082166
:1057D0004848FCF754FF69464648FCF787FB082118
:1057E0004448FCF759FF69464248FCF7CAFB0821C8
:1057F0004048FCF75AFF01213E48FCF707FF012112
:105800003C48FCF703FE07B000BD00B587B001219E
:105810000420FBF7ECFF40F2E730ADF81400032062
:10582000ADF810000020ADF81600ADF8120004A984
:105830003148FCF78FFA6020ADF800000120ADF888
:1058400002000020ADF80600ADF8080069462A48BD
:10585000FCF7BDFA08212848FCF708FF69462648EE
:10586000FCF7F7FA08212448FCF709FF69462248AB
:10587000FCF73CFB08212048FCF70EFF69461E4858
:10588000FCF77FFB08211C48FCF70FFF01211A4899
:10589000FCF7BCFE01211848FCF7B8FD07B000BDBD
:1058A00008B501210820FBF795FF01211020FBF727
:1058B00091FF4FF47070ADF8000018208DF80300D0
:1058C00003208DF8020069460C48FBF7C7FC4FF433
:1058D0007070ADF8000018208DF8030003208DF8DB
:1058E000020069460648FBF7B9FCFFF741FFFFF7E6
:1058F0008CFF08BD0004004000080040000C01407F
:105900000010014010B50023002204E0845C1C4418
:10591000E3B2541CE2B24C1E9442F7DC421812F877
:10592000012C9A4200D010BD0278AA2A02D14278F6
:10593000AF2A00D0F7E78278012A40D10279A22A63
:1059400009D1854A92F8D820012A38D10124824A07
:1059500082F8FA4033E00279A32A0CD17E4A92F809
:10596000D82022BB01227C4C84F8D82050247A4ACB
:1059700082F86D4523E00279A02A09D1764A92F88F
:10598000D820012A1BD10022734C84F8D82016E0BD
:105990000279A52A04D101246F4A82F8F5400EE06D
:1059A0000279A42A04D100246B4A82F8F54006E06B
:1059B0000279A12A03D10124674A82F8FB40827848
:1059C000032A33D10324644A82F8EC40027912029C
:1059D00012B244792243604CA4F8B02082791202BA
:1059E00012B2C47922435C4CA4F8B220027A1202AB
:1059F00012B2447A2243584CA4F8B420827A12029C
:105A000012B2C47A2243544CA4F8B620027B12028C
:105A100012B2447B2243504CA4F8B820827B12027D
:105A200012B2C47B22434C4CA4F8BA2000BF7AE7E0
:105A30004A49097839B9AA2805D10121474A117084
:105A40004749087059E045490978012907D1AF282D
:105A500005D10221414A1170414948704DE03F494A
:105A60000978022907D1F12805DA03213B4A117090
:105A70003B49887041E03949097803290CD1322823
:105A80000ADA0421354A11703549C8703549087061
:105A90000021354A117030E030490978042919D1C4
:105AA00030490978002915DD2E490978491E2D4A0B
:105AB00011702D4909782C4A1278521C2A4B1A7001
:105AC000091D274A505427490978B1B90521234AAD
:105AD000117012E02149097805290BD100211F4AD4
