:020000040800F2
:10000000902D0020210400082D0200082F02000876
:1000100033020008370200083B020008000000001D
:100020000000000000000000000000003F02000887
:10003000410200080000000043020008BF910008D0
:100040003B0400083B0400083B0400083B04000894
:100050003B0400083B0400083B0400083B04000884
:100060003B0400083B0400083B0400083B04000874
:100070003B0400083B0400083B0400083B04000864
:100080003B0400083B0400083B0400083B04000854
:100090003B0400083B0400083B0400083B04000844
:1000A0003B0400083B0400083B0400083B04000834
:1000B0003B0400083B0400083B0400083B04000824
:1000C0003B0400083B0400083B0400083B04000814
:1000D0003B0400083B0400083B0400083B04000804
:1000E0003B0400083B0400083B0400083B040008F4
:1000F0003B0400083B0400083B0400083B040008E4
:100100003B0400083B0400083B0400083B040008D3
:10011000275000083B0400083B0400083B0400088B
:100120003B0400083B0400083B0400083B040008B3
:1001300000F002F800F05AF80AA090E8000C82449F
:100140008344AAF10107DA4501D100F04FF8AFF27C
:10015000090EBAE80F0013F0010F18BFFB1A43F0A5
:100160000103184774BB000094BB00000A444FF021
:10017000000C10F8013B13F0070408BF10F8014B06
:100180001D1108BF10F8015B641E05D010F8016B4B
:10019000641E01F8016BF9D113F0080F1EBF10F8AF
:1001A000014BAD1C0C1B09D16D1E58BF01F801CBD2
:1001B000FAD505E014F8016B01F8016B6D1EF9D555
:1001C0009142D6D37047000000230024002500266A
:1001D000103A28BF78C1FBD8520728BF30C148BFAA
:1001E0000B6070471FB51FBD10B510BD09F048FD6D
:1001F0001146FFF7F7FF00F009F809F066FD03B4B8
:10020000FFF7F2FF03BC09F069FD00000121084679
:1002100001F0E0FA0121044801F0F1F806F0C2FA19
:1002200001E008F0D3FEFCE700023000704700BF99
:10023000FEE700BFFEE700BFFEE700BFFEE7704736
:10024000704770471CB50020019000906A48006814
:1002500040F480306849086000BF6748006800F4D7
:10026000003000900198401C0190009818B9019846
:10027000B0F5A06FF1D16048006800F4003010B113
:100280000120009001E0002000900098012840D15A
:100290005A48006840F01000584908600846006855
:1002A00020F0030008600846006840F00200086083
:1002B00051484068504948600846406848600846D0
:1002C000406840F4806048604FF4E0114FF44030E3
:1002D00001F09AF94848006840F08070464908608B
:1002E00000BF4548006800F000700028F9D042487F
:1002F000406820F00300404948600846406840F0EC
:100300000200486000BF3C48406800F00C0008282C
:10031000F9D11CBD10B5FFF795FF10BD10B53648DB
:10032000006840F0010034490860084640683449DC
:1003300008403149486008460068324908402E4963
:1003400008600846006820F480200860084640687D
:1003500020F4FE0048604FF41F008860FFF7DAFFCA
:100360004FF000602849086010BD10B50021002042
:100370000022214B5B6803F00C0121B1042906D057
:10038000082928D107E0214B214C236027E0214B8D
:100390001F4C236023E0184B5B6803F47010164B6E
:1003A0005B6803F48032022303EB904022B91A4BBE
:1003B0004343174C23600DE00F4B5B6803F400339D
:1003C00023B1124B4343124C236003E0114B4343D0
:1003D0000F4C236003E00D4B0D4C236000BF00BFAA
:1003E000054B5B68C3F303130C4CE15C084B1B68C3
:1003F000CB40074C236010BD00100240002002409B
:100400000000FFF8FFFFF6FE08ED00E000127A00A2
:10041000000000200024F40000093D00040000203A
:100420000948804709480047FEE7FEE7FEE7FEE788
:10043000FEE7FEE7FEE7FEE7FEE7FEE704480549C4
:10044000054A064B704700001D03000831010008F3
:1004500090270020902D0020902900209029002036
:1004600031490143314A1160704770B500210023C2
:100470000F22C47804B32D4C246804F4E064C4F55E
:10048000E064210AC1F10403CA40447804FA03F18C
:100490008478144021430901254C0678A15504783D
:1004A00004F01F050124AC4005786D11AD0005F185
:1004B000E025C5F8004109E0047804F01F05012497
:1004C000AC401C4D0678761145F8264070BD1A4A9E
:1004D0000A400243154B1B1F1A60704739B1134A7B
:1004E000121D12680243114B1B1D1A6006E00F4AD1
:1004F000121D126882430D4B1B1D1A6070470428A1
:1005000008D14FF0E021096941F004014FF0E022E9
:10051000116107E04FF0E021096921F004014FF07B
:10052000E0221161704700000000FA050CED00E0C8
:1005300000E400E080E100E080FFFF1F10B504460A
:10054000FA48844208D10121401501F05DF90021EB
:10055000601501F059F917E0F548844208D10121EE
:10056000001501F051F90021201501F04DF90BE0C3
:10057000F048844208D10121C80301F045F9002167
:100580004FF4004001F040F910BD30B502460020A4
:1005900000235068E84C20400D790C6844EA05249B
:1005A000204350609068E54C2040D1E902542C4330
:1005B0004D7944EA450420439060D06A20F47000ED
:1005C0000C7C641EE4B2234340EA0350D06230BD89
:1005D00000210160017141718160C16001210174DC
:1005E000704721B1826842F00102826003E08268B4
:1005F00022F001028260704721B1826842F4807269
:10060000826003E0826822F480728260704710B5D5
:100610000023CBB21AB144681C43446002E0446832
:100620009C43446010BD816841F0080181607047BF
:10063000014600208A6802F008020AB1012000E0A9
:1006400000207047816841F00401816070470146D5
:1006500000208A6802F004020AB1012000E00020B4
:10066000704721B1826842F4A002826003E0826890
:1006700022F4A00282607047014600208A6802F4DA
:1006800080020AB1012000E00020704710B50A4640
:1006900000210023416821F46041531E41EA4331A7
:1006A000416010BD21B1426842F40062426003E043
:1006B000426822F4006242607047F0B504460D467D
:1006C00000200021092D11DDE068A5F10A0606EBE6
:1006D0004607072606FA07F18843A5F10A0606EB46
:1006E000460603FA06F10843E0600CE0206905EBDA
:1006F0004507072606FA07F1884305EB450603FA86
:1007000006F108432061072A0FDA606B561E06EBDC
:1007100086071F2606FA07F18843561E06EB860653
:1007200005FA06F10843606322E00D2A0FDA206B18
:10073000D61F06EB86071F2606FA07F18843D61F49
:1007400006EB860605FA06F10843206310E0E06A2E
:10075000A2F10D0606EB86071F2606FA07F188436D
:10076000A2F10D0606EB860605FA06F10843E062E3
:10077000F0BD21B1826842F48012826003E0826899
:1007800022F48012826070470146C86C80B27047C4
:1007900066484C300068704721B1426842F480627C
:1007A000426003E0426822F480624260704721B1F7
:1007B000426842F48052426003E0426822F4805270
:1007C000426070470A460021816821F4E0411143EC
:1007D0008160704721B1826842F40042826003E088
:1007E000826822F400428260704721B1826842F43C
:1007F0000212826003E0826822F402128260704773
:10080000014600208A6802F400120AB1012000E0CB
:1008100000207047F0B5044615460020002200264F
:10082000092911DDE068A1F10A0707EB470C07274A
:1008300007FA0CF29043A1F10A0707EB470703FA06
:1008400007F21043E0600CE0206901EB410C072740
:1008500007FA0CF2904301EB410703FA07F2104349
:100860002061A06BC0F30156EF1C06F1010CA7EB51
:100870000C0707EB870C1F2707FA0CF29043EF1CBD
:1008800006F1010CA7EB0C0707EB870701FA07F24B
:100890001043A063F0BD10B50A4600210023816B10
:1008A00021F44011531E41EA0351816310BD08B584
:1008B000002300930090009B0B440093009B1A6060
:1008C00008BD08B5024600200090009201F1280002
:1008D000009B184400900098006880B208BD0A464A
:1008E00000214168164B1940114341607047416235
:1008F000826270470A460021416821F01F011143BE
:100900004160704740B109490831096841F400016C
:10091000064A0832116007E004490831096821F4E9
:100920000001024A083211607047000000240140B3
:1009300000280140003C0140FFFEF0FFFDF7F1FF01
:10094000FFFD3FFF0246002013680B400BB1012062
:1009500000E000207047CA430260704770B502464D
:100960000020002300240B125568CEB205EA0604CD
:1009700015681D4015B10CB1012000E0002070BDCC
:1009800000220A12D34303607047000001684FF64B
:10099000FE72114001600021016041608160C16010
:1009A0008D49884208D18C490839496841F00F01C6
:1009B000894A083A51608AE087491431884208D14F
:1009C00085490839496841F0F001834A083A516085
:1009D0007DE081492831884208D17F49083949683A
:1009E00041F470617C4A083A516070E07A493C31C8
:1009F000884208D178490839496841F47041764AFB
:100A0000083A516063E074495031884208D1724914
:100A10000839496841F470216F4A083A516056E03C
:100A20006D496431884208D16B490839496841F4FD
:100A30007001694A083A516049E067497831884253
:100A400008D165490839496841F07061624A083A3D
:100A500051603CE06149884206D1011F096841F0BC
:100A60000F01021F116032E05C491431884208D145
:100A70005A49091F096841F0F001584A121F1160D4
:100A800025E056492831884208D15449091F096890
:100A900041F47061514A121F116018E04F493C3116
:100AA000884208D14D49091F096841F470414B4AF9
:100AB000121F11600BE049495031884207D1474964
:100AC000091F096841F47021444A121F11607047E0
:100AD00010B50022026847F6F0739A430C6A8B68DF
:100AE00023430C6923434C6923438C692343CC691A
:100AF00023434C6A23438C6A23431A430260CB6826
:100B000043600B6883604B68C36010BD00210160C7
:100B100041608160C160016141618161C1610162C7
:100B200041628162704721B1026842F001020260B5
:100B300004E002684FF6FE731A40026070471AB173
:100B400003680B43036002E003688B430360704754
:100B5000416070470146486880B2704701460020F6
:100B6000002201F080531BB11C4B083B1A6802E0C5
:100B7000194B083B1A6802EA01030BB1012000E09F
:100B80000020704700F0805119B11449091F086016
:100B900002E01149083948607047014600200022F0
:100BA00001F080531BB10D4B083B1A6802E00A4B61
:100BB000083B1A6802EA01030BB1012000E00020A3
:100BC000704700F0805119B10449091F086002E024
:100BD0000149083948607047080002400804024093
:100BE00001460020FE4A106800F0380008431060FB
:100BF0007047FB49096821F00801F94A1160114664
:100C00000968014311607047F549096821F0100136
:100C1000F34A116011460968014311607047F148B9
:100C2000EF494860F04848607047EE48EC4948603A
:100C3000ED4848607047EA48006940F08000E849A4
:100C400008617047E648006940F08000E4490861A7
:100C500070470420E249C96801F0010109B101208F
:100C60000EE0DF49C96801F0040109B1022007E084
:100C7000DB49C96801F0100109B1032000E004203C
:100C8000704700B502460423FFF7E3FF034603E085
:100C9000FFF7DFFF0346521E012B01D1002AF7D1D7
:100CA00002B90523184600BD30B5044604254FF4AB
:100CB0003020FFF7E6FF0546042D17D1C84800692C
:100CC00040F00200C649086108464461006940F0EE
:100CD000400008614FF43020FFF7D3FF0546C048BD
:100CE000006941F6FD710840BD490861284630BDE4
:100CF00010B504244FF43020FFF7C3FF0446042C42
:100D000016D1B748006940F00400B54908610846AB
:100D1000006940F0400008614FF43020FFF7B1FF58
:100D20000446AF48006941F6FB710840AC490861D0
:100D3000204610BD00B502460423FFF78AFF034694
:100D400003E0FFF786FF0346521E012B01D1002A64
:100D5000F7D102B90523184600BD10B504244FF49D
:100D60003020FFF7E7FF0446042C16D19C480069A9
:100D700040F004009A4908610846006940F04000CC
:100D800008614FF43020FFF7D5FF0446944800690E
:100D900041F6FB71084092490861204610BD0020D1
:100DA0008F49C96901F0020109B1012000E000206A
:100DB000704730B5A5250424FFF7F1FF00B10025E9
:100DC0004FF43020FFF75DFF0446042C3AD18548EC
:100DD00083498860844888600846006940F02000A4
:100DE00008610846006940F0400008614FF4302077
:100DF000FFF747FF0446042C1BD17948006941F6F0
:100E0000DF710840764908610846006940F010002B
:100E1000086176480580E002FFF733FF0446052CA1
:100E200010D06F48006941F6EF7108406C490861C5
:100E300008E0052C06D06A48006941F6EF710840C9
:100E400067490861204630BD78B506460C46042542
:100E500000200090E802FFF714FF0546042D24D17E
:100E60005F48006940F001005D4908613480E80294
:100E7000FFF707FF0546042D10D1B01C0090200C91
:100E800000990880E802FFF7FCFE05465448006917
:100E900041F6FE7108405249086106E05048006979
:100EA00041F6FE7108404E490861284678BD70B58C
:100EB00004460D460426F002FFF7E3FE0646042E24
:100EC00011D14748006940F001004549086125807B
:100ED000F002FFF7D6FE06464148006941F6FE7172
:100EE00008403F490861304670BD70B505460E4662
:100EF0000424E002FFF7C5FE0446042C17D139484C
:100F000037498860384888600846006940F010001A
:100F100008612E80E002FFF7B4FE0446052C06D0DF
:100F20002F48006941F6EF7108402D4908612046BD
:100F300070BD2DE9F04304464FF6FF763746B046C4
:100F4000B1460425E443E6B2C4F30727C4F30748D7
:100F50004FEA1469E802FFF794FE0546042D49D1D3
:100F600020481F498860204888600846006940F092
:100F700010000861FF2E06D01C4808300680E802E9
:100F8000FFF77FFE0546042D08D1FF2F06D0174836
:100F90000A300780E802FFF774FE0546042D0AD1E7
:100FA000B8F1FF0F07D011480C30A0F80080E8021C
:100FB000FFF767FE0546042D0AD1B9F1FF0F07D0F0
:100FC0000A480E30A0F80090E802FFF75AFE0546E6
:100FD000052D0FD00248006941F6EF71084007E087
:100FE0000020024023016745AB89EFCD00F8FF1FC9
:100FF000664908612846BDE8F08330B505460424FB
:101000004FF43020FFF73DFE0446042C41D16048E8
:101010005E4988605F4888600846006940F02000AB
:1010200008610846006940F0400008614FF4302034
:10103000FFF727FE0446042C22D15448006941F6EC
:10104000DF710840514908610846006940F010000E
:1010500008611DB100205049088002E0A5204E49DA
:1010600008804FF43020FFF70CFE0446052C10D00A
:101070004648006941F6EF7108404449086108E0BC
:10108000052C06D04148006941F6DF7108403F4910
:101090000861204630BDF0B505460E4617460424CB
:1010A0003B483A4988603B488860E002FFF7E9FD29
:1010B0000446042C19D13548006940F0100033492A
:1010C000086147F0F800304328433349891C088001
:1010D000E002FFF7D6FD0446052C06D02B48006938
:1010E00041F6EF710840294908612046F0BD2748C4
:1010F000C069800870472548006A7047002023496E
:10110000096801F0200109B1012000E000207047CA
:1011100029B11E4A126902431C4B1A6104E01B4AA2
:1011200012698243194B1A61704701460020012958
:1011300008D1164AD26902F001020AB1012008E082
:10114000002006E0114AD2680A400AB1012000E0FE
:10115000002070470D49C860704704200B49C968DA
:1011600001F0010109B101200EE00849C96801F050
:10117000040109B1022007E00449C96801F0100127
:1011800009B1032000E00420704700000020024065
:1011900023016745AB89EFCD00F8FF1F10B504466A
:1011A000CC48844208D10121042000F02DFB00210D
:1011B000042000F029FB46E0C748844208D1012101
:1011C000082000F021FB0021082000F01DFB3AE080
:1011D000C248844208D10121102000F015FB0021F3
:1011E000102000F011FB2EE0BD48844208D10121FF
:1011F000202000F009FB0021202000F005FB22E068
:10120000B848844208D10121402000F0FDFA0021B5
:10121000402000F0F9FA16E0B348844208D10121D9
:10122000802000F0F1FA0021802000F0EDFA0AE0C1
:10123000AE48844207D10121801500F0E5FA002173
:10124000A01500F0E1FA10BD10B50121084600F02C
:10125000DBFA0021012000F0D7FA10BD2DE9F041A2
:10126000024600250026002000230024002791F8D4
:1012700003C00CF00F0591F803C00CF0100CBCF18A
:10128000000F03D091F802C04CEA050591F800C0A8
:10129000BCF1000F31D0146800202BE04FF0010C9E
:1012A0000CFA00F3B1F800C00CEA03069E4220D10C
:1012B00083004FF00F0C0CFA03F7BC4305FA03FC54
:1012C0004CEA040491F803C0BCF1280F06D14FF09A
:1012D000010C0CFA00FCC2F814C00AE091F803C03B
:1012E000BCF1480F05D14FF0010C0CFA00FCC2F81C
:1012F00010C0401C0828D1D31460B1F800C0BCF164
:10130000FF0F34DD546800202EE000F1080C4FF090
:10131000010808FA0CF3B1F800C00CEA03069E427B
:1013200021D183004FF00F0C0CFA03F7BC4305FAF0
:1013300003FC4CEA040491F803C0BCF1280F05D16A
:1013400000F1080C08FA0CF8C2F8148091F803C0F8
:10135000BCF1480F07D100F1080C4FF0010808FA62
:101360000CF8C2F81080401C0828CED35460BDE8A9
:10137000F0814FF6FF710180022181700421C1705C
:1013800070470246002093680B400BB1012000E03B
:10139000002070470146886880B2704702460020EE
:1013A000D3680B400BB1012000E0002070470146DC
:1013B000C86880B2704701617047416170470AB1E7
:1013C000016100E041617047C16070474FF48032B5
:1013D0000A43826181618261826982697047024643
:1013E0000020434B18684FF68073184040EA021003
:1013F00008433F4B186070473E49C8617047F0B5DD
:101400000A46002300240021002500F00046B6F122
:10141000004F02D1364EF16901E0354E7168C0F3DC
:10142000034583B200F44016B6F5401F08D121F001
:1014300070612F4E766826F070662D4F7E6012E048
:1014400000F48016B6F5801F06D1032606FA05F4CF
:10145000A14341F0706106E0460D360103FA06F63D
:10146000B14341F0706122B1460D360103FA06F630
:10147000314300F00046B6F1004F02D11C4EF1613D
:1014800001E01B4E7160F0BD30B500228B071C0FD0
:101490000F2303FA04F2164B08338C1053F8243050
:1014A0009343134C08348D1044F8253023468C1098
:1014B00053F824308C07240F00FA04F423430C4C17
:1014C00008348D1044F8253030BD0A49DC310860FD
:1014D0007047000000080140000C0140001001406E
:1014E0000014014000180140001C01400020014090
:1014F0000000014000002042DF48006840F0010089
:10150000DD49086008464068DC490840DA4948601F
:1015100008460068DA490840D7490860084600686C
:1015200020F4802008600846406820F4FE004860EF
:101530004FF41F0088607047CF49096821F480315B
:10154000CD4A11601146096821F480211160B0F57F
:10155000803F03D0B0F5802F0ED106E0C649096860
:1015600041F48031C44A116007E0C349096841F47D
:10157000A021C14A116000E000BF00BF704710B554
:1015800001460022002300204A11012A02D1BA4C50
:10159000236806E0022A02D1B74C236A01E0B64C68
:1015A000636A01F01F02012494401C400CB1012029
:1015B00000E0002010BD38B5002000900024002578
:1015C00000BF3120FFF7DBFF05460098401C00906C
:1015D0000098B0F5A06F01D0002DF2D03120FFF7B8
:1015E000CEFF08B1012400E00024204638BD0146AA
:1015F0000020A14A106820F0F80040EAC100106005
:101600007047A04908607047024600209A4B58680E
:1016100020F47C1042EA01031843974B586070474E
:1016200098490866704701460020934A506820F0A8
:1016300003000843506070478F48406800F00C007A
:101640007047014600208C4A506820F0F0000843A3
:101650005060704701460020874A506820F4E060DF
:1016600008435060704701460020834A506820F4C8
:10167000605040EAC1005060704729B17E4A527AFA
:1016800002437D4B5A7204E07B4A527A82437A4B82
:101690005A7270477B49D831086070470146002074
:1016A000754A506820F4404008435060704700215C
:1016B000714A20321170704A82F82010012802D03D
:1016C00004280AD104E001216B4A2032117005E0A0
:1016D0000521694A2032117000E000BF00BF704749
:1016E0006949086070476449096A0143624A1162A6
:1016F0007047654944390860704730B500210022C1
:10170000002400235C4D6D6805F00C0121B1042913
:1017100005D0082923D105E05C4D056022E05C4D31
:1017200005601FE0544D6D6805F47012524D6D68F0
:1017300005F48034022505EB92421CB9554D554302
:1017400005600BE04C4D6D6805F400351DB14F4D43
:101750005543056002E04E4D5543056002E04B4D98
:10176000056000BF00BF444D6D6805F0F001090938
:10177000494D6B5C0568DD4045603F4D6D6805F483
:10178000E061090A444D6B5C4568DD4085603A4D77
:101790006D6805F46051C90A3F4D6B5C4568DD40DA
:1017A000C560354D6D6805F44041890B3B4D6B5C60
:1017B000C568B5FBF3F5056130BD29B12E4A526904
:1017C00002432D4B5A6104E02B4A526982432A4B53
:1017D0005A61704729B1284A92690243264B9A619F
:1017E00004E0254A92698243234B9A61704729B1EC
:1017F000214AD2690243204BDA6104E01E4AD269D1
:1018000082431D4BDA61704729B11B4AD2680243FB
:10181000194BDA6004E0184AD2688243164BDA604A
:10182000704729B1144A12690243134B1A6104E04C
:10183000114A12698243104B1A61704712494039AC
:10184000086070470F49C86470470B49C8717047FA
:101850000948406A40F08070074948627047014675
:101860000020054A92680A400AB1012000E00020E9
:101870007047014988727047001002400000FFF86D
:10188000FFFFF6FE000042428004424200127A004E
:101890000024F40000093D00140000202400002072
:1018A00010B50446BE48844208D101218014FFF7D8
:1018B000ABFF0021A014FFF7A7FF16E0B948844250
:1018C00008D101210014FFF7ACFF00212014FFF71D
:1018D000A8FF0AE0B448844207D10121C013FFF7F2
:1018E000A0FF0021E013FFF79CFF10BD10B5002200
:1018F000028802F441520B884C8823438C8823438E
:10190000CC8823430C8923434C8923438C8923436C
:10191000CC8923431A430280838B4FF2FF74234008
:1019200083830B8A038210BD2DE9F04F85B00546F5
:101930000C464FF0000902274FF000084FF0010B52
:101940000026B246A88B4FF240010840A88302202F
:101950002884B5F81C90A068022801D100BF38E0A7
:10196000A08810B94FF0010B01E04FF0020B8D4839
:10197000854200D100E000BF6846FFF7BEFEDDF8FB
:1019800000A0E088B0F5007F0AD14FEA1A2000EBF2
:1019900080004000A168B0FBF1F0401D86B20BE072
:1019A0004FEA4B10BAFBF0F000EB80004000A1685A
:1019B000B0FBF1F0401D86B20A20B6FBF0F606F04F
:1019C0000108A6EB0800C0F34F074FF6FF7000EACE
:1019D0000828022F01DBFF2F02DD02274FF000084D
:1019E000E08840EA080038432884A088A189084399
:1019F000618808432188084340F4006040EA0909EF
:101A0000A5F81C9005B0BDE8F08F00210180418051
:101A10008180C180018141818181C1810721018251
:101A200070470021018041808180C1800221816056
:101A300000218181704721B1028842F0400202807A
:101A400004E002884FF6BF731A400280704721B14C
:101A5000828B42F48062828304E0828B4FF6FF33F4
:101A60001A408283704730B5002400230C110125F1
:101A7000A540ABB21AB185881D43858002E08588F8
:101A80009D43858030BD1AB183880B43838002E07B
:101A900083888B43838070478181704701468889A2
:101AA00070474FF6FF62914204D0028842F4807280
:101AB000028004E002884FF6FF631A4002807047FC
:101AC00021B1828842F00402828004E082884FF6CD
:101AD000FB731A408280704702884FF2FF731A40EE
:101AE000028002880A4302807047018841F48051D5
:101AF0000180704721B1028842F40052028004E064
:101B000002884DF6FF731A4002807047024600209B
:101B1000012901D0108B00E0908A70470146088AA5
:101B20007047B1F5804F04D1028842F480420280B0
:101B300004E002884BF6FF731A40028070470246A9
:101B4000002013890B400BB1012000E000207047FA
:101B5000CA4302817047F0B50246002000240023EA
:101B6000002501F00F070126BE40B4B20B1101267B
:101B70009E40B3B2968806EA03051689264016B140
:101B80000DB1012000E00020F0BD10B5002201F0F1
:101B90000F040123A3409AB2D343038110BD000078
:101BA0000030014000380040003C004010B50446C1
:101BB000FE48844208D10121C014FFF725FE002110
:101BC000E014FFF721FEC4E0B4F1804F08D10121F9
:101BD0000846FFF726FE00210120FFF722FEB8E0AD
:101BE000F348844208D101210220FFF71AFE0021A8
:101BF0000220FFF716FEACE0EE48844208D1012136
:101C00000420FFF70EFE00210420FFF70AFEA0E0EB
:101C1000E948844208D101210820FFF702FE002193
:101C20000820FFF7FEFD94E0E448844208D101213A
:101C30001020FFF7F6FD00211020FFF7F2FD88E0ED
:101C4000DF48844208D101212020FFF7EAFD00216E
:101C50002020FFF7E6FD7CE0DA48844208D101212C
:101C60004014FFF7D1FD00216014FFF7CDFD70E0B7
:101C7000D548844209D10121C804FFF7C5FD0021E0
:101C80004FF40020FFF7C0FD63E0D048844209D143
:101C900001210805FFF7B8FD00214FF48010FFF780
:101CA000B3FD56E0CA48844209D101214805FFF737
:101CB000ABFD00214FF40010FFF7A6FD49E0C54839
:101CC000844208D101214020FFF7ABFD00214020D4
:101CD000FFF7A7FD3DE0C048844208D101218020E4
:101CE000FFF79FFD00218020FFF79BFD31E0BB48FF
:101CF000844208D101218015FFF793FD0021A01532
:101D0000FFF78FFD25E0B648844209D10121080480
:101D1000FFF77AFD00214FF48030FFF775FD18E0E2
:101D2000B048844209D101214804FFF76DFD00212C
:101D30004FF40030FFF768FD0BE0AB48844208D158
:101D400001218804FFF760FD00214FF48020FFF798
:101D50005BFD10BD00220288944B98420ED0994B37
:101D600098420BD0B0F1804F08D0914B984205D0EB
:101D7000904B984202D0904B984204D14FF68F730B
:101D80001A404B881A438D4B984207D08C4B98428F
:101D900004D04FF6FF431A40CB881A4302808B8849
:101DA00083850B880385814B98420BD0854B9842E5
:101DB00008D08B4B984205D08A4B984202D08A4B70
:101DC000984201D10B7A038601238382704770B554
:101DD000002400220023058C4FF6FE763540058452
:101DE000028C8388048B4FF68F752C40B51E2C40D7
:101DF0000D882C43751E2A400D892A434D882A439D
:101E00006A4DA8420BD06F4DA84208D0744DA8422D
:101E100005D0744DA84202D0734DA84213D14FF69D
:101E2000F7752A404D892A434FF6FB752A408D8865
:101E30002A434FF6FF652B404FF6FF552B408D8907
:101E40002B43CD892B4383800483CD8885860284F0
:101E500070BD70B5002400220023058C4FF6EF768C
:101E600035400584028C8388048B48F6FF752C402E
:101E70004FF6FF452C400D884FF6FF7606EA052504
:101E80002C434FF6DF752A400D8906EA05152A43D3
:101E90004D8806EA05152A43444DA84202D0494D13
:101EA000A8421DD14FF67F752A404D894FF6FF7627
:101EB00006EA05152A434FF6BF752A408D8806EAC3
:101EC00005152A434FF6FF352B404FF2FF752B4087
:101ED0008D8906EA85052B43CD8906EA85052B43C6
:101EE00083800483CD880587028470BD70B500248B
:101EF00000220023058C4FF6FF6635400584028CD6
:101F00008388848B4FF68F752C404FF6FC752C40E0
:101F10000D882C434FF6FF552A400D894FF6FF766A
:101F200006EA05252A434D8806EA05252A431F4D62
:101F3000A84202D0234DA8421DD14FF2FF752A407E
:101F40004D894FF6FF7606EA05252A434FF6FF3501
:101F50002A408D8806EA05252A434EF6FF752B4058
:101F60004DF6FF752B408D8906EA05152B43CD896B
:101F700006EA05152B4383808483CD8885870284F8
:101F800070BD70B5002200230024058C4EF6FF764C
:101F900035400584038C8488828B48F6FF752A407F
:101FA0004FF6FF452A400D8820E00000002C01403C
:101FB0000004004000080040000C004000100040F9
:101FC0000014004000340140004C0140005001402A
:101FD0000054014000180040001C00400020004058
:101FE0000040014000440140004801404FF6FF76A8
:101FF00006EA05252A434DF6FF752B400D8906EAB2
:1020000005352B434D8806EA05352B43FA4DA8428A
:1020100002D0FA4DA84208D14BF6FF752C408D89AD
:102020004FF6FF7606EA85152C4384808283CD889F
:10203000A0F84050038470BD828B4FF2FF331A40EA
:102040008283828B4FF6FF7303EA01231A43828354
:102050007047F0B50C461546002200210026078C7B
:102060004EF6FF7C07EA0C070784828B018C4FF643
:10207000FF7707EA043640F6FF473A404FF6FF770E
:1020800007EA05273A434FF6FF7707EA03373A4353
:10209000D94FB8420ED0D94FB8420BD0B0F1804FD3
:1020A00008D0D74FB84205D0D64FB84202D0D64F4D
:1020B000B84206D14DF6FF77394046F48057394390
:1020C00005E047F6FF57394044F48057394382838F
:1020D0000184F0BD828B4FF6F3731A408283828BAA
:1020E0000A4382837047F0B50C4615460022002152
:1020F0000026078C4FF6FF6C07EA0C070784828BDB
:10210000018C4FF6FF7707EA04264FF60C773A402A
:102110004FF6FF7707EA03172F433A43B64FB8420B
:102120000ED0B64FB8420BD0B0F1804F08D0B44FAC
:10213000B84205D0B34FB84202D0B34FB84206D12F
:102140004FF6FF57394046F48077394305E04FF2A8
:10215000FF57394044F48077394382830184F0BDCE
:10216000028B4FF2FF331A400283028B4FF6FF734C
:1021700003EA01231A4302837047F0B50C46154663
:10218000002200210026078C4FF6EF7C07EA0C079F
:102190000784028B018C4FF6FF7707EA041640F69E
:1021A000FF473A404FF6FF7707EA03373A434FF6C7
:1021B000FF7707EA05273A438F4FB8420ED08F4F7B
:1021C000B8420BD0B0F1804F08D08D4FB84205D047
:1021D0008C4FB84202D08C4FB84206D14FF6DF7711
:1021E000394046F01007394305E04FF65F77394034
:1021F00044F01007394302830184F0BD028B4FF68F
:10220000F3731A400283028B0A4302837047F0B5CE
:102210000C46154600220021068C4FF6FE773E4004
:102220000684028B018C4FF60C7632407E1C06EA47
:1022300003162E433243704EB0420ED06F4EB04262
:102240000BD0B0F1804F08D06D4EB04205D06D4E2E
:10225000B04202D06C4EB04206D14FF6FD7631400E
:1022600044F00106314305E04FF6F576314044F085
:102270000106314302830184F0BD70B505460C466A
:102280005D4885420ED05D4885420BD0B5F1804F48
:1022900008D05B48854205D05A48854202D05A484A
:1022A000854200D100E000BF208850B92389A28870
:1022B00061882846FFF7ABFFE1882846FFF79EFFBD
:1022C00025E0208804280AD12389A288618828462D
:1022D000FFF753FFE1882846FFF742FF17E0208809
:1022E00008280AD12389A28861882846FFF7FBFEC7
:1022F000E1882846FFF7EEFE09E02389A28861887D
:102300002846FFF7A6FEE1882846FFF795FE70BD38
:102310002DE9F04105460C4600260127608808B9E2
:10232000022600E00026A088012801D1022700E053
:1023300001272088A0B92389A28861882846FFF751
:1023400066FFE1882846FFF759FF23893A46314660
:102350002846FFF712FFE1882846FFF701FF13E048
:102360002389A28861882846FFF707FFE18828466D
:10237000FFF7F6FE23893A4631462846FFF747FF26
:10238000E1882846FFF73AFFBDE8F0810A884B88CC
:102390001A438B881A43CB881A430B891A434B89FB
:1023A0001A438B891A43A0F8442070474FF6FF71F7
:1023B000818000210180C18041800172704700212D
:1023C000018041808180C180018141818181C18101
:1023D0007047002101804180012181800021C1805E
:1023E000018170470021018041808180C18001818D
:1023F0004181818170470000002C01400034014080
:102400000004004000080040000C004021B1028898
:1024100042F00102028004E002884FF6FE731A4087
:102420000280704731B1B0F8442042F40042A0F875
:10243000442005E0B0F84420C2F30E02A0F8442086
:1024400070471AB183890B43838102E083898B43F0
:10245000838170478182704741EA0203A0F84830C7
:1024600070471AB183890B43838102E083898B43D0
:102470008381704701894FF6F872114001817047DE
:102480000A46002101894FF68F73194011430181DB
:10249000704730B504460D4629462046FFF7F0FF49
:1024A000208940F00700208130BD2DE9F04104462D
:1024B0000D4616461F46602D06D13B460122314689
:1024C0002046FFF75AFE05E03B46012231462046F2
:1024D000FFF79DFE29462046FFF7D2FF208940F0F6
:1024E00007002081BDE8F08130B50C46002101894C
:1024F000C9B24FF6FF7505EA032515432543294365
:10250000018130BD2DE9F04105460E46174698463B
:10251000002443463A4631462846FFF7E5FF2C891A
:102520004FF6F870044044F007044FF68F700440F3
:1025300044F070042C81BDE8F081F0B504460D46EE
:1025400016461F463B46324629462046FFF7CCFF3B
:10255000208940F480402081F0BD0185828270474F
:102560000A46002101884FF68F73194011430180FC
:102570007047F0B50C4615461E4600210022002388
:102580000189028B038C4FF6F877394021434FF6CF
:10259000FC473A4040F201173A434FF6DD773B40A3
:1025A0004FF6FF7707EA06172F433B43018102836B
:1025B0000384F0BD0A460021018B4FF68F7319404A
:1025C0001143018370470A460021018B48F6FF73CF
:1025D00019404FF6FF7303EA022319430183704742
:1025E0000A460021818B4FF68F7319401143818376
:1025F00070470A460021818B48F6FF7319404FF659
:10260000FF7303EA022319438183704721B10288D3
:1026100042F08002028004E002884FF67F731A4085
:102620000280704721B1828842F00402828004E077
:1026300082884FF6FB731A408280704721B18288EE
:1026400042F00802828004E082884FF6F7731A4055
:102650008280704721B1828842F00102828004E0CA
:1026600082884FF6FE731A40828070470A46002126
:10267000018B4FF6F77319401143018370470A46E7
:102680000021018B4FF2FF7319404FF6FF7303EAED
:1026900002231943018370470A460021818B4FF6BC
:1026A000F77319401143818370470A460021818BDB
:1026B0004FF2FF7319404FF6FF7303EA02231943E9
:1026C000818370470A460021018B4FF6FB73194046
:1026D0001143018370470A460021018B4FF6FF33F7
:1026E00019404FF6FF7303EA022319430183704731
:1026F0000A460021818B4FF6FB73194011438183F9
:1027000070470A460021818B4FF6FF3319404FF680
:10271000FF7303EA02231943818370470A460021AD
:10272000018B4FF67F7319401143018370470A46AE
:102730000021018BC1F30E014FF6FF7303EA022360
:102740001943018370470A460021818B4FF67F733E
:1027500019401143818370470A460021818BC1F3E0
:102760000E014FF6FF7303EA02231943818370477A
:102770000A460021018C4FF6FD7319401143018474
:1027800070470A460021018C4FF6F7731940114338
:10279000018470470A460021018C4FF6DF7319400F
:1027A0004FF6FF7303EA02131943018470470A4688
:1027B0000021018C4FF67F7319404FF6FF7303EA37
:1027C00002131943018470470A460021018C4FF619
:1027D000FF5319404FF6FF7303EA022319430184A4
:1027E00070470A460021018C4FF2FF7319404FF6E3
:1027F000FF7303EA02231943018470470A4600214C
:10280000018C4DF6FF7319404FF6FF7303EA023354
:1028100019430184704730B5002301248C40A3B2D2
:10282000048C9C430484048C02FA01F5ADB22C4361
:10283000048430BD30B5002304248C40A3B2048C42
:102840009C430484048C02FA01F5ADB22C43048449
:1028500030BD70B50346002000241846183001250D
:102860008D40ACB21D8CA5431D8409B1082909D146
:1028700000EB6100056825F07005056005681543EB
:1028800005600EE00D1FC5F34E052844056825F4CC
:10289000E045056005684FF6FF7606EA02263543F7
:1028A000056070BD21B1028842F00202028004E09E
:1028B00002884FF6FD731A400280704721B10288EA
:1028C00042F00402028004E002884FF6FB731A40D3
:1028D0000280704721B1828842F08002828004E049
:1028E00082884FF67F731A408280704702884FF6C5
:1028F000F7731A40028002880A4302807047828878
:102900004FF68F731A40828082880A438280704714
:1029100002894FF6F8731A40028102890A43028144
:10292000704702894FF67F731A40028102890A4379
:102930000281704781847047818570478186704726
:102940000187704781877047A0F840107047028860
:102950004FF6FF431A40028002880A430280704704
:102960000146888E70470146088F70470146888F60
:1029700070470146B1F8400070470146888C7047A7
:102980000146088D704702460020138A0B400BB1A8
:10299000012000E000207047CA430282704730B532
:1029A0000246002000230024158A05EA01039589C8
:1029B00005EA010413B10CB1012000E0002030BD94
:1029C000CA4302827047000010B50446FB488442A7
:1029D00009D101218803FEF717FF00214FF4804041
:1029E000FEF712FF32E0F648844209D10121480483
:1029F000FEF717FF00214FF40030FEF712FF25E02D
:102A0000F048844209D101218804FEF70AFF002121
:102A10004FF48020FEF705FF18E0EB48844209D10F
:102A20000121C804FEF7FDFE00214FF40020FEF74F
:102A3000F8FE0BE0E548844208D101210805FEF7C5
:102A4000F0FE00214FF48010FEF7EBFE10BD2DE9E3
:102A5000F04786B005460E460024A24600BFA146B8
:102A60000027B08900B100BF2F462C8A4CF6FF70BA
:102A70000440F08804432C82AC894EF6F3100440E5
:102A8000B08831890843718908430443AC81AC8A1A
:102A90004FF6FF400440B0890443AC8201A8FEF722
:102AA0002CFEC648874202D1DDF810A001E0DDF817
:102AB0000CA0A88900F4004040B10AEBCA0000EB6A
:102AC0000A1031684900B0FBF1F807E00AEBCA00D0
:102AD00000EB0A1031688900B0FBF1F86420B8FB04
:102AE000F0F004012009642101FB1089A88900F499
:102AF000004040B1322000EBC900B0FBF1F000F023
:102B00000700044308E0322000EB09106421B0FB09
:102B1000F1F000F00F0004432C8106B0BDE8F0870F
:102B20004FF41651016000218180C18001810C2188
:102B3000418100218181704710B502460020108A32
:102B40004FF2FF0318400B884C8823438C882343A3
:102B5000CC8823431843108210BD0021018041809E
:102B60008180C180704721B1828942F40052828104
:102B700004E082894DF6FF731A4082817047F0B5F8
:102B80000346002400260025002040F66A17B942BB
:102B900000D100BF1846C1F3421401F01F060127FF
:102BA00007FA06F5012C01D10C3004E0022C01D10A
:102BB000103000E014301AB107682F43076002E0BC
:102BC0000768AF430760F0BD1AB1838A0B43838265
:102BD00002E0838A8B4383827047028A4FF6F07348
:102BE0001A400282028A0A430282704782894FF2A7
:102BF000FF731A40828182890A438281704721B122
:102C0000828942F00202828104E082894FF6FD73DC
:102C10001A4082817047028A4FF6DF731A4002829F
:102C2000028A0A430282704721B1028A42F480423A
:102C3000028204E0028A4BF6FF731A400282704758
:102C4000C1F308028280704701468888C0F30800FB
:102C50007047818941F0010181817047028BD2B2B6
:102C60000283028B42EA012202837047028B02F444
:102C70007F420283028B0A430283704721B1828A1A
:102C800042F02002828204E0828A4FF6DF731A400B
:102C90008282704721B1828A42F01002828204E06F
:102CA000828A4FF6EF731A408282704721B1828A7E
:102CB00042F00802828204E0828A4FF6F7731A40DB
:102CC0008282704721B1828942F40042828103E00E
:102CD0008289C2F30E028281704721B1828A42F456
:102CE0000062828204E0828A4FF2FF731A4082827D
:102CF0007047828A4FF6FB731A408282828A0A43A7
:102D00008282704721B1828A42F00202828204E00C
:102D1000828A4FF6FD731A40828270470246002075
:102D2000B1F5007F00D100BF13880B400BB101202B
:102D300000E00020704701F40072B2F5007F00D17E
:102D400000BFCA430280704770B5024600240023CA
:102D50000025002040F66A16B14200D100BFC1F341
:102D6000421501F01F03012606FA03F3012D02D1DB
:102D70009689334006E0022D02D1168A334001E0E5
:102D8000968A33400C12012606FA04F41688344061
:102D900013B10CB1012000E0002070BD10B500227D
:102DA000002340F66A14A14200D100BF0A12012498
:102DB0009440A3B2DC43048010BD00000038014001
:102DC0000044004000480040004C004000500040DB
:102DD00001B5A4B0FE48239000202290FD48D0F811
:102DE0000C011890FB48D0F810011790F948D0F862
:102DF00014011690F748D0F818011590DDE9171066
:102E000008F0BCFC21901699189808F0B7FC2090A7
:102E10001799084608F0B2FC1F901599179808F00A
:102E2000ADFC1E901699084608F0A8FC1D90DDE93F
:102E3000151008F0A3FC1C901599084608F09EFC9C
:102E40001B90DDE9161008F099FC1A901599189856
:102E500008F094FC1990DF48806B0690DD48806B89
:102E60000590069908F08AFC0890DA48406B0490B7
:102E7000D848406B0390049908F080FC0690D54830
:102E8000006B0490D348006B0390049908F076FC23
:102E90000590069908F072FA0790089908F06EFA02
:102EA000099000F001FF1490CA48006B0990149932
:102EB00008F0D2FA1090C748406B0990149908F0B6
:102EC000CBFA1190C348806B0990149908F0C4FAAA
:102ED00012904FF080401B9908F050FC08904FF082
:102EE00080401D9908F04AFC0790089908F046FABE
:102EF0004FF07E51099008F03EFDB649C1F81C0123
:102F00004FF08040199908F039FC09904FF080404B
:102F10001A9908F033FC0890099908F037FD01462A
:102F2000AC48C0F820114FF08040209908F026FCF2
:102F300009904FF080401E9908F020FC08900999F4
:102F400008F01CFA0146A348C0F824114FF0804055
:102F5000199908F013FC09904FF080401A9908F075
:102F60000DFC0890099908F009FA9A49C1F828015E
:102F70004FF080401B9908F001FC08904FF0804012
:102F80001F9908F0FBFB0790089908F0F7F94FF03C
:102F90007E51099008F0EFFC01468E48C0F82C11D4
:102FA0004FF08040219908F0E9FB09904FF08040F4
:102FB0001C9908F0E3FB0890099908F0E7FC01462A
:102FC0008448C0F830114FF08040209908F0D6FBBB
:102FD00009904FF080401E9908F0D0FB08900999A5
:102FE00008F0D4FC7B49C1F834014FF080402199AE
:102FF00008F0C4FB09904FF080401C9908F0BEFB1C
:103000000890099908F0BAF901467248C0F83811D9
:103010004FF080401D9908F0B1FB08904FF08040C0
:103020001F9908F0ABFB0790089908F0A7F94FF03B
:103030007E51099008F09FFC01466648C0F83C119B
:10304000D0F8340101460890634808F097FB0990D6
:103050006048006B01460890099808F08CFC5D49B7
:10306000C1F840010846D0F83801014608905A4896
:1030700008F084FB09905748406B01460890099876
:1030800008F079FC01465348C0F84411D0F83C01DF
:1030900001460890504808F071FB09904D48806B3C
:1030A00001460890099808F066FC01464948C0F8B6
:1030B0004811D0F8480107904648D0F83C010690E6
:1030C000079908F05BFB09904248D0F8440105904D
:1030D0004048D0F838010490059908F04FFB07905C
:1030E0003C48D0F8400105903A48D0F834010490AB
:1030F000059908F043FB0690079908F03FF90890FE
:10310000099908F03BF93349C1F88C0012980790EF
:103110000846D0F838010690079908F02FFB09906F
:103120002C48D0F83C01079011980690079908F0B8
:1031300025FB0890099908F029FC0D90129807903A
:103140002448D0F834010690079908F017FB09903D
:103150002048D0F83C01079010980690079908F095
:103160000DFB0890099908F011FC80F000400E90CA
:1031700000200F900D980346184A19490990249889
:1031800001F052F90E980346164A15490990249801
:1031900001F04AF90F980346134A114909902498FF
:1031A00001F042F90D48406801460790249808F064
:1031B000E5FA0890229908F0E1FA09900B480068B6
:1031C00001460890099808F0D9F8084908600FE00E
:1031D0009A99193F841F00200000754428000020A0
:1031E000CDCC4C3E3000002038000020D40500201B
:1031F000FE48406801460790249808F0BFFA0890FE
:10320000229908F0BBFA0990F948406801460890F5
:10321000099808F0B3F8F6494860F6484068014656
:103220000790249808F0AAFA0890229908F0A6FAC4
:103230000990EF48806801460890099808F09EF8C8
:10324000EB498860084600680490EB4840680390AA
:10325000049908F093F80590239908F08FFA0790E5
:10326000E648806CE649059008F088FA06900799D0
:1032700008F084F80890249908F080FA4FF0804113
:10328000099008F0E9F80A90D94840680490D748B6
:1032900040680390049908F071F80590239908F0AC
:1032A0006DFA0790D548C06CD549059008F066FACC
:1032B0000690079908F062F80890249908F05EFAE1
:1032C0004FF08041099008F0C7F80B90C84880681B
:1032D0000490C84840680390049908F04FF805909E
:1032E000239908F04BFA0790C448006DC449059033
:1032F00008F044FA0690079908F040F808902499DD
:1033000008F03CFA4FF08041099008F0A5F80C90C5
:103310000C9801460790159808F030FA09900B9820
:1033200001460590169808F029FA07900A98014678
:103330000490179808F022FA0590189908F01BFBE2
:103340000690079908F022FB0890099908F01EFBE7
:10335000AA49C1F80C010B9801460790159808F08E
:103360000DFA09900C9801460590169808F006FA97
:1033700007900A9801460490189808F0FFF9059004
:10338000179907F0FBFF0690079907F0F7FF0890E1
:10339000099908F0FBFA9949C1F810010A98014609
:1033A0000790159808F0EAF909900C9801460490E6
:1033B000179808F0E3F906900B98014604901898C6
:1033C00008F0DCF90590069908F0E0FA07901699E4
:1033D00007F0D4FF0890099907F0D0FF8749C1F89A
:1033E00014010A9801460690169808F0C7F908904B
:1033F0000B9801460490179808F0C0F906900C98B5
:1034000001460490189808F0B9F90590069907F05C
:10341000B5FF0790089908F0B9FA0990159907F0D7
:10342000ADFF7649C1F818010846D0F8180106909A
:103430000846D0F818010590069908F09FF9089001
:103440006E48D0F8140104906C48D0F81401039031
:10345000049908F093F906906848D0F8100102909A
:103460006648D0F810010190029908F087F904909D
:103470006248D0F80C0102906048D0F80C0101902D
:10348000029908F07BF90390049907F077FF059003
:10349000069907F073FF0790089907F06FFF0990EE
:1034A00000F002FC13905548D0F80C0109901399D4
:1034B00007F0D2FF5149C1F80C010846D0F81001BD
:1034C0000990139907F0C8FF4C49C1F8100108464C
:1034D000D0F814010990139907F0BEFF4749C1F8CD
:1034E00014010846D0F818010990139907F0B4FFA9
:1034F0004249C1F818014FF08040209908F03EF988
:1035000002904FF080401E9908F038F9019002991E
:1035100008F03CFA039007F005FFCDE9040106F03E
:1035200019FF4FF0C042374BCDE9060107F0EAFB27
:10353000CDE9080107F00AF93049C1F800014FF060
:1035400080401D9908F01AF905904FF040401F99EE
:1035500008F014F90490059908F018FA4FF07E511C
:10356000069007F00BFF08904FF08040219908F07B
:1035700005F906904FF080401C9908F0FFF805907F
:10358000069907F0FBFE0790089900F0D9FA1E494A
:10359000099008F0F3F81949C1F804014FF0804090
:1035A0001B9908F0EBF805904FF040401D9908F08A
:1035B000E5F80490059908F0E9F94FF07E5106907E
:1035C00007F0DCFE08904FF08040199908F0D6F81B
:1035D00006904FF080401A9908F0D0F805900699AF
:1035E00007F0CCFE0790089910E0000030000020A2
:1035F000D40500203800002028000020841F00206F
:1036000035FA8E3C66A64C403333654200F098FA9A
:1036100080F000400449099008F0B0F80349C1F86F
:10362000080125B000BD000033336542841F00202F
:103630002DE9F84F0446FE480068FE49086002F094
:1036400056FA054607F0FEFFF949086000212046BA
:1036500007F0C4FF01D100200AE0F5490968F54AE6
:103660001268881A08F02AF80646214607F0F4FE88
:10367000054607F0E7FFF04908600846006808F0D3
:103680001DF80546ED482B46ED4A0A210090ED480D
:1036900001F000F8EC49204608F070F80646EB48C7
:1036A000006808F00BF80746E4480168384608F05F
:1036B00062F90546314608F02DF804D2E249204669
:1036C00008F05CF822E0E249204608F057F8064688
:1036D000DE48006807F0F2FF0746D8480168384620
:1036E00008F049F90546314608F014F904D2D849E2
:1036F000204608F043F809E0D448006807F0DEFFF0
:103700000546CE480168284608F035F9D1490860D9
:10371000D1480168CF48006808F038F98146CF49A0
:10372000204608F02BF8824651464FF07E5007F0B5
:1037300093FE80464FF07E5107F020FE0746394643
:103740004FF07E5007F088FE0646494608F016F80E
:103750000546C1480168284607F010FEBE490860CA
:10376000BB49204608F00AF883460021BA480068A1
:1037700008F0D0F802D2B848006803E0B648006804
:1037800080F000408146594607F066FE074600215A
:1037900007F0C0FF01D2002034E0AD49204607F019
:1037A000EDFF83460021AC48006808F0B3F802D270
:1037B000A948006803E0A848006880F000408146FE
:1037C000594607F049FE07464FF07E5108F0A2F82F
:1037D00002D24FF07E5015E09D49204607F0CEFF03
:1037E000814600219C48006808F094F802D29A486B
:1037F000006803E09848006880F0004007464946AA
:1038000007F02AFE804693480168404607F0B6FF5D
:1038100006468E48006807F051FF8246314607F0A1
:10382000ADFD054607F00EFF88490860BDE8F88F3A
:1038300070B504467E48006889490860834800687E
:10384000884908608849D1F88C0007F0FBFE874959
:1038500008608748874988608448006807F02EFF21
:10386000844908607F48006807F028FF8149486064
:103870008148C860204607F039FF06467F4907F0B7
:103880007DFF05467B4900F06AFD79487C498860E8
:103890007848406908606648006807F00FFF78497B
:1038A00048607848C860204607F020FF0646734904
:1038B00007F064FF0546724900F051FD7048406909
:1038C000714908606B484069C86070BD0020694953
:1038D000486108616A494861086170472DE9F0470D
:1038E0008AB0824669480088401C68490880664A58
:1038F00011685D4AD2F8540508F048F86449086038
:1039000064480168006807F039FF80466148016833
:10391000404607F033FF074639464FF07E5007F028
:103920009BFD06465A480168304607F027FF0546CA
:10393000514607F023FF044657480168204607F028
:103940001DFD5549086053480168006807F016FFDF
:1039500007463946514807F07FFD06464C48016846
:10396000304607F00BFF0546514607F007FF0446B7
:103970004B480168204607F001FD49490860454869
:103980000168464807F068FD064641480168304630
:1039900007F0F4FE0546514607F0F0FE04464148A4
:1039A0000168204607F0EAFC3E4908603648806915
:1039B0003549C1F8E004384A11682B4AD2F88C0026
:1039C00007F0DCFC304988610A469169D2F8E004CE
:1039D00007F0D4FC8146514607F0D0FE804607F040
:1039E000A1FC064600224FF0804306F09DFF0446EE
:1039F00006F0ACFE2C490860504607F093FCCDE978
:103A000006012949086807F08DFC80460022274BF3
:103A100007F078F9CDE902011B49C86807F082FC7C
:103A2000CDE90001DDE9022306F0C2FE40E000001E
:103A30007C00002080000020840000208C000020FA
:103A400090000020C41600200000FAC48800002066
:103A50000000FA449400002098000020C3F548407C
:103A60007000002074000020841F002078000020D7
:103A7000CDCC4C3F94160020000048436F12833A8F
:103A8000AC1600200000C842E00500209C00002089
:103A9000440000204000002024100020000040408E
:103AA00030100020181000203C1000200000E03FE3
:103AB000CDE90401DDE9062307F024F904460D46AB
:103AC0001449086807F02EFC064622462B4606F0ED
:103AD0006FFECDE9080106F039FE0E4908600E4A76
:103AE00011680C4A106807F049FC0C4908600C4A40
:103AF0001168084AD06807F041FC0649C860094AC5
:103B00001168044AD06807F039FC0449C8600AB05B
:103B1000BDE8F087FC0A002018100020E005002016
:103B20003C1000203010002010B504460021204633
:103B300007F0F0FE01D8204610BD84F00040FBE7FE
:103B40002DE9FE4F824688460021504607F046FD8B
:103B500004D00021404607F041FD01D1002498E047
:103B60005046FFF7E1FF01904046FFF7DDFF02906E
:103B7000DDE9010107F0CEFD05D2DDE9010107F025
:103B80006BFC074604E0DDE9011007F065FC074621
:103B9000FD49384607F0BEFD01D23D462BE04FF00F
:103BA0008741384607F0EAFD83464FF07C5107F025
:103BB000EDFE8146484607F045FD0646304607F0D3
:103BC0007DFD8346494607F0D6FE8146EF4850F812
:103BD0002650024652F826100346721C53F8220063
:103BE00007F0D4FE4946009007F0C8FD83462946F9
:103BF00007F0C4FB0546DDE9011007F08BFE20D27B
:103C00000021404607F086FE09D80021504607F003
:103C100081FE01D82C463CE085F0004439E0DC4CC4
:103C20000021504607F076FE05D82946204607F0C9
:103C3000ADFE04462DE02146284607F0A7FE0446C7
:103C400027E00021504607F065FE11D8D14C002135
:103C5000404607F05FFE05D82946204607F096FE4D
:103C6000044616E02946204607F088FB044610E08B
:103C7000C94C0021404607F04DFE05D82946204694
:103C800007F07CFB044604E02946204607F07EFE50
:103C900004462046BDE8FE8F70B504460D46214619
:103CA0002846FFF74DFF70BD2DE9F05F04464FF049
:103CB0007F594FF07C51204607F060FD8246254633
:103CC0002E46B648A0EB660635462946504607F014
:103CD00055FD8346294607F051FD8046494607F0C9
:103CE0004AFE0746294607F049FD05462946504643
:103CF00007F044FD8346294607F040FD80464946CB
:103D000007F039FE0746294607F038FD05462946E3
:103D1000204607F033FDBDE8F09F2DE9FC5F064625
:103D20000F46002213463046394606F0AFFF14D244
:103D30004FF0C0429A4B3046394606F0E3FF8246C8
:103D40004FF0C042974B06F033FD804632463B466B
:103D500006F0D8FF04460D4613E04FF0C042904BEA
:103D60003046394606F0CEFF80464FF0C0428D4BBC
:103D700007F0FCF8824632463B4606F0C3FF044695
:103D80000D46002213462046294606F07FFF19D231
:103D90000022854B2046294606F00AFD80464FF05A
:103DA0004042824B06F0AEFF824600227E4B06F078
:103DB000FFFC22462B46CDE9000106F0A3FF044696
:103DC0000D4618E00022784B2046294607F0C0F93E
:103DD00080464FF04042764B06F094FF8246002228
:103DE000714B06F0E5FC22462B46CDE9000106F0BA
:103DF00089FF04460D4620462946BDE8FC9F2DE973
:103E0000F04704460D464FF0010A6A4A6A4B2046C5
:103E1000294607F075F809D8664A674B20462946B7
:103E200007F096F904460D464FF0FF3A504606F06B
:103E300002FF06460F4620462946FFF76EFF8046E2
:103E400032463B4606F05EFFBDE8F0872DE9F84FAD
:103E500004460D4601200090564A584B20462946FC
:103E600006F0A6FC04460D46524A534B204629460E
:103E700007F046F80AD84FF0FF3000904D4A4E4BFD
:103E80002046294607F064F904460D46009806F0DE
:103E9000D2FE06460F4620462946FFF7B0FF804671
:103EA00032463B4606F02EFF824606F04FFCBDE848
:103EB000F88F2DE9F04107460C4616462146384654
:103EC00007F028FD0BD23146384607F05FFD054666
:103ED0002146284607F01EFC0CD225460AE0314652
:103EE000384607F04BFA05462146284607F012FDF2
:103EF00000D225462846BDE8F0812DE9F04704466A
:103F00000F46154685F000493946484607F036FA0F
:103F10008046214607F0FEFB0AD23946284607F0C4
:103F20002DFA8046214607F0F5FC01D23E4600E01E
:103F300026463046BDE8F0872DE9F04F85B00746AC
:103F4000884615469946DDE90E6431464FF07C50AF
:103F500007F014FC4946049007F010FC824600214B
:103F6000284607F0D7FC01D2284601E085F0004042
:103F70008346514607F0CEFB24D21149404607F054
:103F8000FDFB80466BE000008180803BA0000020AC
:103F9000DB0F4940DB0FC93FDB0FC9BFDF59375F7C
:103FA0002FF0D93F305FF43F0000F03FCCCCCCBFC6
:103FB000CCCCCC3FF1D4C853FB210940FB21F93FC5
:103FC0009A99993F4946304607F0D8FB834600212D
:103FD000284607F09FFC01D2284601E085F000400A
:103FE0008246594607F096FB05D26D49404607F0D8
:103FF000C5FB804633E00021284607F08BFC01D248
:10400000284601E085F000408246494607F082FBE1
:1040100006D24FF07C51404607F0B0FB80461EE0D0
:1040200049464FF0804007F0A9FB8346002128460F
:1040300007F070FC01D2284601E085F0004082467E
:10404000594607F067FB05D25649404607F096FBF4
:10405000804604E05449404607F090FB80462846DD
:10406000216807F093FC51490490404607F086FB15
:104070003946009007F082FB014601904FF07E50D8
:1040800007F0EAF983464FF07E5107F077F90146D1
:1040900002904FF07E5007F0DFF90390049907F08B
:1040A0006DFB8246216807F069F9206086F0004BBD
:1040B0004946584607F062FB8246216807F02AFC11
:1040C00006D286F0004A4946504607F057FB0EE0FC
:1040D0004946304607F052FB8246216807F01AFB3A
:1040E00004D24946304607F049FB00E020682060D2
:1040F0002846216807F04AFC05B0BDE8F08F70B58E
:1041000004460D4600222A4B2046294606F0F8FEBA
:1041100006D20022274B2046294607F019F870BD29
:104120000022254B2046294606F0B0FD06D200228B
:10413000204B2046294606F03BFBF0E72046294667
:10414000EDE710B504461D49204607F0E3FB04D215
:104150001B49204607F01AFC10BD1A49204607F0FB
:10416000D9FA04D21649204607F008F9F4E72046A8
:10417000F2E72DE9F04104460E4686F0004721465D
:10418000384607F0C7FA06D23146204607F0C2FA91
:1041900001D2002500E025462846BDE8F081000058
:1041A000CDCC4C3FCDCC4C3ECDCCCC3DC3F5C84066
:1041B0000080664000807640008066C00000344386
:1041C0000000B443000034C32DE9F04704460D4617
:1041D00016463146284607F0D1FA804631464FF060
:1041E0007E5007F0D3FB8146214607F0C7FA074609
:1041F000414607F0C3F8BDE8F0872DE9FF5F88B0BE
:1042000092469946DDF85CB0ABF1010004B208E0DB
:10421000601E0AEBC00103C90AEBC40203C2601EA0
:1042200004B2002CF4DCDDE90801CAE90001002534
:104230002E46002418E0169800EBC40003C8CDE910
:1042400002010AEBC40003C8CDE90001DDE9022345
:1042500006F058FD2A463346CDE9040106F0A8FAD7
:1042600005460E46601C04B25C45E4DB1998401E0E
:1042700004B208E0601E09EBC00103C909EBC402E7
:1042800003C2601E04B2002CF4DC0027B8460124EF
:1042900018E0189800EBC40103C9CDE9020109EB4D
:1042A000C40003C8CDE90001DDE9022306F02AFDC0
:1042B0003A464346CDE9040106F07AFA07468846B5
:1042C000601C04B219988442E3DB3A464346284610
:1042D000314606F03DFFC9E90001D9E90001CDE909
:1042E0000601DDE906010CB0BDE8F09F2DE9F041C3
:1042F00006460C460021E06807F00CFB15D2E0688A
:1043000080F000473846616907F004FB03D2E0689B
:1043100080F0004007E0E168606907F0FBFA01D235
:10432000E06800E06069054600E0656929462068AC
:1043300007F024F8A061A169606807F027FB074631
:10434000A16807F01BFA20613046216907F016FAD0
:104350000746616907F012F86061BDE8F0812DE958
:10436000F04105460C462169206807F007F807462A
:10437000294607F003FA0646616906F0FFFF60610F
:104380006169606807F002FB0646A16807F0F6F96C
:1043900020610021E06807F0BDFA14D2E06880F0E7
:1043A00000463046216907F0B5FA03D2E06880F094
:1043B000004007E0D4E9031007F0ACFA01D2E0684E
:1043C00000E020692061BDE8F0812DE9FE4F06463E
:1043D0000F4615461C462846216807F0D7FAFD49C6
:1043E0000290304607F0CAF93946009007F0C6F946
:1043F000014601904FF07E5007F02EF883464FF0B3
:104400007E5106F0BBFF824651464FF07E5007F0CA
:1044100023F88146029907F0B1F98046216806F039
:10442000ADFF2060BDE8FE8F2DE9F04707468846C6
:1044300014461D4623462A4639464046FFF7C5FF27
:104440000021206807F066FA01D2206802E02068A7
:1044500080F00040064686F000492946484607F0AD
:1044600059FA02D286F0004007E03146284607F0AC
:1044700051FA01D2304600E028466060BDE8F0877E
:104480002DE9F04F89B005468A4614461E460120A4
:104490000890002007904FF0010B01200690059036
:1044A0004FF000084FF0000900200490A068E06081
:1044B0002078401CC0B22070504501DB00202070E5
:1044C0002178129845F82100304607F00FF9039043
:1044D000E2681299881A07F0F1F80290039906F041
:1044E000BBFF80460021404607F014FA01D2404647
:1044F00001E088F000404FF07E51039007F00AF988
:1045000026D2304607F0F2F800210290404607F02C
:1045100001FA01D2404601E088F000400190029982
:1045200007F02CF94FF08041039007F0F3F802D226
:104530004FF000080CE00021404607F0EBF901D2F3
:10454000012001E04FF0FF30039007F0B7F88046FC
:10455000D4F80C9000BF00270DE055F82700A0EB21
:10456000090155F82700A0EB0902049801FB02009D
:104570000490781C07B25745EFDB61680498401A35
:1045800000280DDD089808B9002006900120089049
:104590000598012801D1801E00E00120059007E068
:1045A00000200890B34503DA0BF1010000F0FF0B87
:1045B0000498606000200490059807F07FF8414659
:1045C000009007F0DBF80290484607F077F801907A
:1045D000029906F0D3FE039007F034F8814607985D
:1045E000401CC0B20790B04201DD00200690BBF134
:1045F000020F01DB0020069006980128ABD0C4F81A
:104600000890D4E90201401A206109B0BDE8F08F9A
:104610002DE9F05F81460F4690469A460A9E98F82B
:104620000000401CC0B288F80000B84202DB002045
:1046300088F8000098F8000049F820A0002405E060
:1046400059F8240046F82400601CC4B2BC42F7DBD1
:1046500000241AE0002512E06A1C56F8221056F8D1
:10466000250007F057F908D2681C56F820B056F814
:10467000251046F8201046F825B0681CC5B2781EF3
:10468000001BA842E8DC601CC4B2781EA042E1DC3A
:10469000BDE8F09F2DE9FC5F06460F46154698469B
:1046A0000C9CB9462888401C80B22880484501DB14
:1046B00000202880288856F820A0288846F82080E6
:1046C000484607F013F851460190404607F05EF95E
:1046D0000090019906F0C0FE8346216806F04EFE68
:1046E00020604046216807F051F93B49009007F0EF
:1046F00011F801D2384810E04046216807F046F929
:104700004FF07E51009007F005F902D24FF07E5035
:1047100003E04046216807F039F93049019007F07D
:104720002DF88346216806F029FE2060BDE8FC9F35
:104730002DE9FF5F86B014461D46DDF850A0DAE98A
:10474000006332462046294606F002FD804689462F
:104750002049069807F012F80090079907F00EF824
:10476000834659464FF07E5006F076FE4FF07E515C
:10477000019006F003FE074639464FF07E5006F0E2
:104780006BFE064606F0CEFD42464B46CDE90201E1
:1047900006F0B8FACDE90401DAE90063324606F022
:1047A00007F8CAE900010AB0BDE8F09F2DE9F04121
:1047B00005460E4614463046216807F0E7F80746DE
:1047C000294607F0A7F80BD22846216806F0D6FD47
:1047D000206017E0C3F5C840000080BFACC5273794
:1047E00085F000473046216807F0D0F8804639460A
:1047F00006F090FF05D22846216807F0BCF820603B
:1048000000E02660BDE8F0812DE9FF5F06460F4617
:1048100090461D460E9C4046216807F0B7F81E4999
:104820000390384606F0AAFF3146009006F0A6FF36
:10483000014601904FF07E5006F00EFE83464FF089
:104840007E5106F09BFD824651464FF07E5006F0A9
:1048500003FE0290039906F091FF8146216806F05D
:104860008DFD206085F000494846216807F052F828
:1048700002D285F0004007E02946206807F04AF898
:1048800001D2284600E0206820604046216807F0F9
:104890007DF804B0BDE8F09FC3F5C84008B501211C
:1048A0000846FCF78AFF01214FF40170FCF792FFE4
:1048B0000220ADF8000000208DF803006946394859
:1048C000FCF7CCFC08BD00B591B03748FCF75EF8AA
:1048D000364806903648079000200890012009903D
:1048E00000200A9080200B9040000C9080000D90DA
:1048F00020200E9000020F900020109006A92A4858
:10490000FCF7E6F801212848FCF70DF9002001909A
:1049100001208DF808008DF809004FF46020039005
:104920000020049001208DF8140001A91F484C3884
:10493000FBF72BFE4FF40040FCF7B0FE05230122ED
:1049400011461A484C38FBF7B8FE012117484C387D
:10495000FBF752FE012115484C38FBF742FE134885
:104960004C38FBF760FE00BF10484C38FBF760FE88
:104970000028F9D10D484C38FBF764FE00BF0B4806
:104980004C38FBF764FE0028F9D1012107484C3868
:10499000FBF767FE11B000BD10B5FFF77FFFFFF713
:1049A00092FF10BD00080140080002404C24014065
:1049B000A404002000BF00BF00BF00BF704708B5BF
:1049C00001210820FCF706FF1020ADF800000320AD
:1049D0008DF8020014208DF803006946DA48FCF7D0
:1049E0003DFC0820ADF8000003208DF802001420E3
:1049F0008DF803006946D448FCF730FCFFF7DAFF76
:104A0000FFF7D8FF08BD00B50820CF491031086076
:104A100010200860FFF7CEFFCB480830006808B9C7
:104A2000012000E0002000F0080008B1002000BDD7
:104A30000820C54914310860FFF7BCFFC2480830A0
:104A4000006800F0080008B10020F0E70820BE4927
:104A500014310860FFF7AEFF0120E8E700B5102031
:104A6000B94914310860FFF7A5FF0820B649143191
:104A70000860FFF79FFF1020B34910310860FFF76F
:104A800099FF0820B04910310860FFF793FF00BD7F
:104A900000B51020AC4914310860FFF78BFF0820E7
:104AA000A94914310860FFF785FF1020A64910318D
:104AB0000860FFF77FFF1020A34914310860FFF75B
:104AC00079FF00BD00B510209F4914310860FFF741
:104AD00071FF08209C4910310860FFF76BFF102020
:104AE000994910310860FFF765FF1020964914318D
:104AF0000860FFF75FFF00BD00B50022102092495B
:104B000014310860FFF756FF08208F491031086004
:104B1000FFF750FF10208C4910310860FFF74AFF63
:104B200089480830006800F0080038B1501CC2B253
:104B3000C82A03DDFFF792FF012000BD1020824943
:104B400014310860FFF736FF0020F6E700B50821B2
:104B50001BE010227C4B14331A60FFF72BFF00F090
:104B6000800222B10822784B10331A6003E0082239
:104B7000754B14331A604206100EFFF71BFF10220C
:104B8000714B10331A60FFF715FF0A1EA1F10103E4
:104B9000D9B2DED110226C4B14331A6000BD10B5AF
:104BA000034608240022082067491031086015E0F8
:104BB0005006020E1020644914310860FFF7FAFE17
:104BC0001020614910310860FFF7F4FE5E4808309C
:104BD000006800F0080008B142F00102201EA4F1B4
:104BE0000101CCB2E4D1102057491431086013B14F
:104BF000FFF74EFF01E0FFF765FF104610BD70B5EF
:104C000004460D461646FFF7FEFE6106080EFFF746
:104C10009DFFFFF771FF18B1FFF720FF012070BD66
:104C20002846FFF793FFFFF767FF3046FFF78EFF39
:104C3000FFF762FFFFF712FF0020F0E770B50446B0
:104C40000D461646FFF7DFFE6106080EFFF77EFFF2
:104C5000FFF752FF18B1FFF701FF012070BD284692
:104C6000FFF774FFFFF748FFFFF7CDFE012101EBCF
:104C70004401C8B2FFF76AFFFFF73EFF0020FFF7CD
:104C80008EFF3070FFF7EAFE0020E7E7F0B505463B
:104C90000E4617461C46FFF7B6FE6906080EFFF7DC
:104CA00055FFFFF729FF18B1FFF7D8FE0120F0BD2F
:104CB0003046FFF74BFFFFF71FFF05E014F8010B2D
:104CC000FFF744FFFFF718FF381EA7F10101CFB22D
:104CD000F4D1FFF7C3FE0020E9E7F0B506460F4622
:104CE00014461D46FFF78FFE7106080EFFF72EFFD4
:104CF000FFF702FF18B1FFF7B1FE0120F0BD384603
:104D0000FFF724FFFFF7F8FEFFF77DFE012101EB1F
:104D10004601C8B2FFF71AFFFFF7EEFE0DE0012CC7
:104D200004D10020FFF73BFF287003E00120FFF7CC
:104D300036FF28706D1C601EC4B2002CEFD1FFF747
:104D40008DFE0020DAE70000000C014000B587B0BE
:104D500001210420FCF73EFD01211020FCF73AFD63
:104D600001210803FCF736FDE020ADF80400012026
:104D70008DF8060018208DF8070001A97548FCF78A
:104D80006DFA1020ADF8040001208DF80600102007
:104D90008DF8070001A96F48FCF760FA10216D48F3
:104DA000FCF709FB1020ADF8040001208DF8060087
:104DB00010208DF8070001A96748FCF74FFA002082
:104DC000ADF808004FF48270ADF80A000020ADF88D
:104DD0000C00ADF80E00ADF810004FF40070ADF807
:104DE00012000820ADF814000020ADF816000720CE
:104DF000ADF8180002A95948FCF778FD0121574881
:104E0000FCF719FE07B000BD10B5044600BF022133
:104E10005248FCF794FE0028F9D021464F48FCF791
:104E20003BFE00BF01214D48FCF789FE0028F9D068
:104E30004A48FCF733FEC0B210BD10B510214548FA
:104E4000FCF7B9FA10BD10B510214248FCF7B5FACD
:104E500010BD10B510214048FCF7ADFA10BD10B5DB
:104E600010213D48FCF7A9FA10BD00B587B001211B
:104E70000920FCF7AFFC01218803FCF7B8FC4FF4D4
:104E80006040ADF8040018208DF8070003208DF86D
:104E9000060001A93248FCF7E1F94FF48050ADF863
:104EA000040010208DF8070003208DF8060001A9EA
:104EB0002B48FCF7D3F94FF480512948FCF77BFAD3
:104EC0000020ADF808004FF48270ADF80A00002011
:104ED000ADF80C00ADF80E00ADF810004FF4007006
:104EE000ADF812000020ADF81400ADF81600072050
:104EF000ADF8180002A91B48FCF7F8FC012119487D
:104F0000FCF799FD07B000BD10B5044600BF0221B3
:104F10001448FCF714FE0028F9D021461148FCF78C
:104F2000BBFD00BF01210F48FCF709FE0028F9D0A6
:104F30000C48FCF7B3FDC0B210BD10B510210848F5
:104F4000FCF739FA10BD10B510210548FCF735FA09
:104F500010BD000000080140001001400030014079
:104F6000000C01400038004010B588B00446012113
:104F7000C804FCF73CFC01211120FCF72BFC4FF48A
:104F80008060ADF80C0003208DF80E0018208DF81D
:104F90000F0003A95148FCF761F94FF40060ADF828
:104FA0000C0004208DF80F0003A94C48FCF756F9BB
:104FB00034208DF8080003208DF809008DF80A00D0
:104FC00001208DF80B0002A8FBF74FFA0020ADF886
:104FD0000000ADF802004FF40070ADF804000020AE
:104FE000ADF8060069463E48FDF7A6FD0494002092
:104FF000ADF81400ADF81600ADF81800ADF81C00BF
:105000000C20ADF81A0004A93548FDF720FD012257
:1050100040F225513248FDF7B2FD01213048FDF73D
:10502000A2FD08B010BD10B52D48008800F00800A2
:1050300018B12B48001D0088C4B240F22551284801
:10504000FDF782FE58B140F225512548FDF7A6FE36
:105050002348001D0088C4B2204600F097F940F2B2
:1050600027711F48FDF770FE50B11E480178007887
:10507000401C1C4A10701C48405C1949091D0880DE
:105080001848007819490978884207DB14480C3021
:10509000008820F0800012490C31088010BD70B5E6
:1050A00004460D4600200AE0225C10490B7809787E
:1050B000491C0E4E31700C49CA54411CC8B2A8425A
:1050C000F2DB07480C30008800F0800028B901228C
:1050D00040F227710248FDF752FD70BD00100140FB
:1050E000004C0040AD040020EC180020AE0400206D
:1050F00000B587B00121C802FCF76CFB40F2E73035
:10510000ADF814000320ADF810000020ADF8160033
:10511000ADF812008DF8180004A94E48FCF71AFEED
:105120006020ADF800000120ADF802000020ADF8CD
:105130000600ADF8080069464648FCF748FE08211D
:105140004448FDF793FA69464248FCF782FE08217D
:105150004048FDF794FA69463E48FCF7C7FE08212F
:105160003C48FDF799FA69463A48FCF70AFF0821DE
:105170003848FDF79AFA01213648FDF753F9012125
:105180003448FDF743FA01213248FDF73FF907B0F3
:1051900000BD00B587B001210420FCF728FB40F2D8
:1051A000E730ADF814000320ADF810000020ADF892
:1051B0001600ADF8120004A92748FCF7CBFD6020CB
:1051C000ADF800000120ADF802000020ADF80600A7
:1051D000ADF8080069462048FCF7F9FD08211E4893
:1051E000FDF744FA69461C48FCF733FE08211A48CB
:1051F000FDF745FA69461848FCF778FE082116487D
:10520000FDF74AFA69461448FCF7BBFE082112482C
:10521000FDF74BFA01211048FDF7F8F901210E487E
:10522000FDF7F4F807B000BD08B501210820FCF730
:10523000D1FA4FF47070ADF8000018208DF803001B
:1052400003208DF8020069460448FCF707F8FFF7D1
:10525000A0FF08BD002C014000080040000C0140E8
:1052600010B50023002204E0845C1C44E3B2541C0B
:10527000E2B24C1E9442F7DC421812F8012C9A421A
:1052800000D010BD0278AA2A02D14278AF2A00D0FD
:10529000F7E78278012A40D10279A22A09D1854A0A
:1052A00092F8D820012A38D10124824A82F8FA40A3
:1052B00033E00279A32A0CD17E4A92F8D82022BB8F
:1052C00001227C4C84F8D82050247A4A82F86D451B
:1052D00023E00279A02A09D1764A92F8D820012A3F
:1052E0001BD10022734C84F8D82016E00279A52A3D
:1052F00004D101246F4A82F8F5400EE00279A42A15
:1053000004D100246B4A82F8F54006E00279A12A14
:1053100003D10124674A82F8FB408278032A33D103
:105320000324644A82F8EC400279120212B24479F2
:105330002243604CA4F8B0208279120212B2C479E0
:1053400022435C4CA4F8B220027A120212B2447AD0
:105350002243584CA4F8B420827A120212B2C47AC2
:105360002243544CA4F8B620027B120212B2447BB2
:105370002243504CA4F8B820827B120212B2C47BA4
:1053800022434C4CA4F8BA2000BF7AE74A49097876
:1053900039B9AA2805D10121474A11704749087037
:1053A00059E045490978012907D1AF2805D10221E3
:1053B000414A1170414948704DE03F49097802293E
:1053C00007D1F12805DA03213B4A11703B49887067
:1053D00041E03949097803290CD132280ADA04213D
:1053E000354A11703549C870354908700021354A71
:1053F000117030E030490978042919D13049097811
:10540000002915DD2E490978491E2D4A11702D49B4
:1054100009782C4A1278521C2A4B1A70091D274A07
:10542000505427490978B1B90521234A117012E077
:105430002149097805290BD100211F4A1170214902
:105440000978091D1D4A505400211F4A118002E0AD
:105450000021194A1170704710B54FF41650FFF72C
:1054600083FD10BD00B518480088401C164908800F
:105470000846008801280ED114480078401C1349C2
:1054800008700E48C078401DC1B20C48FFF7E8FE16
:1054900001200F4908700C480088B0F5FA7F05DB41
:1054A000012009490880002009490870084800784F
:1054B00000BD0000841F0020B6040020EC1900206D
:1054C000B4040020B5040020B0040020B304002080
:1054D000B704002070B504460D46164632462946EC
:1054E0002046FFF78CFBFE49087070BD38B50446B6
:1054F0000D466A4629462046FFF7A0FB9DF80000AE
:1055000038BD2DE9F04106460F4615460024A04659
:10551000102F19D008DC012F23D0022F0BD0042F1D
:105520000CD0082F1CD10CE0202F10D0402F11D010
:10553000802F15D111E044F0200413E044F0400422
:1055400010E044F060040DE044F080040AE044F010
:10555000A00407E044F0C00404E044F0E00401E0EB
:1055600000BF00BF00BF102D1FD008DC012D31D0BF
:10557000022D0BD0042D0ED0082D2AD110E0202DA5
:1055800018D0402D1BD0802D23D11DE044F0010404
:105590004FF4C01821E044F002044FF460181CE0FE
:1055A00044F003044FF4F00817E04FF4783844F067
:1055B000040412E04FF4FC2844F005040DE04FF41D
:1055C0007E2844F0060408E04FF4FF1844F0070476
:1055D00003E000BF4FF4002800BF00BFAEB9C148D0
:1055E0000068C0F82480224606217620FFF772FF6B
:1055F000082D0ADD09217620FFF778FF044644F0E4
:10560000040209217620FFF765FF012E16D1B54867
:105610000068C0F8288044F0800207217620FFF758
:1056200059FF082D0ADD09217620FFF75FFF0446A8
:1056300044F0080209217620FFF74CFFBDE8F08115
:1056400070B510217620FFF751FF04461121762016
:10565000FFF74CFF0546200140EA1510A1490968F3
:105660000880A0480068008800F4006030B19D48C0
:105670000068B0F9000040F4704003E09948006809
:10568000B0F9000000B2974909680880112176201E
:10569000FFF72CFF044612217620FFF727FF05466F
:1056A00004F00F0045EA00208E49096848808D48C3
:1056B0000068408800F4006030B18A480068B0F9A2
:1056C000020040F4704003E086480068B0F9020030
:1056D00000B284490968488013217620FFF706FF4D
:1056E000044614217620FFF701FF06461521762097
:1056F000FFF7FCFE0546200340EA061040EA2510AD
:1057000078490968486077480068406800F40020DC
:1057100028B17448006840687349084302E0714842
:10572000006840686F490968486015217620FFF7D6
:10573000DDFE044616217620FFF7D8FE0646172127
:105740007620FFF7D3FE0546200440EA06202843D2
:1057500064490968886063480068806800F4002034
:1057600028B16048006880685F49084302E05D48EE
:10577000006880685B490968886018217620FFF717
:10578000B5FE044619217620FFF7B0FE054645EA2E
:10579000042000B25349096888811A217620FFF756
:1057A000A5FE04461B217620FFF7A0FE054645EA2C
:1057B000042000B24B490968C8811C217620FFF7FC
:1057C00095FE04461D217620FFF790FE054645EA2A
:1057D000042000B24349096808821E217620FFF7A1
:1057E00085FE04461F217620FFF780FE054645EA28
:1057F000042000B23B490968488220217620FFF747
:1058000075FE044621217620FFF770FE054645EA25
:10581000042000B233490968888270BD10B504467F
:10582000201DC2B208217620FFF754FE10BD10B52E
:105830002E482C49086000200968C8612949096878
:1058400008623420274909680876FFF7F9FE10221C
:1058500080210020FFF755FE082211460120FFF7A6
:1058600050FE0320FFF7DAFF10BD10B50222082119
:105870007620FFF72FFE10BD10B5012208217620FB
:10588000FFF728FE10BD08B5002000900321762008
:10589000FFF72CFE8DF8000004217620FFF726FE8E
:1058A0008DF8010005217620FFF720FE8DF802001B
:1058B0009DF8000000049DF8011040EA01209DF8C9
:1058C0000210084307490968086206480068006A30
:1058D00000F4000078B103480068006A08E00000A6
:1058E000C8040020B80400200000F0FF201A0020A7
:1058F00040F07F4002E0AB480068006AA9490968AF
:10590000086208BD08B500217620FFF7EFFD8DF88D
:10591000000001217620FFF7E9FD8DF8010002214A
:105920007620FFF7E3FD8DF802009DF800000004EB
:105930009DF8011040EA01209DF8021008439949A2
:105940000968C86197480068C06900F4000028B180
:1059500094480068C06940F07F4002E091480068C8
:10596000C06990490968C86108BD2DE9FC5F8D498F
:105970000968886A05F0A2FE04468A490968086A2F
:1059800005F09CFE0546214605F066FD0090854920
:105990000968B1F9020005F091FE8146009905F011
:1059A000EDFE804605F0BEFC06460F467D490968BF
:1059B000B1F9000005F03FF9804600227A4B05F06E
:1059C000A1F9824632463B4604F0F2FE044604F05A
:1059D000BDFE01900198BDE8FC9F2DE9FE4F714985
:1059E0000968886A05F06AFE81466E490968086A96
:1059F00005F064FE8246494605F02EFD04466949DD
:105A00000968486A05F05AFE814666490968C8690E
:105A100005F054FE8246494605F01EFD05466149E3
:105A20000968B1F9140005F049FE2946009005F017
:105A3000A5FE83465B490968B1F9100005F03EFEFA
:105A40005946019005F09AFC8246294605F096FEDB
:105A5000814654490968886805F030FE494602903D
:105A600005F08CFC06464F490968B1F9120005F0B3
:105A700025FE8346294605F081FE8246494909688C
:105A8000B1F90E0005F01AFE5146019005F076FCC2
:105A900081462946204605F071FE4946029005F0F0
:105AA0006DFE07463F490968B1F90C0005F006FE96
:105AB0002146029005F062FE82463146284605F0F6
:105AC0005DFE384902900968486805F0F7FD0190CD
:105AD000029905F053FC8346514605F04FFC814680
